:020000040800F2
:10400000380B0020854100088D410008815A0008C6
:1040100000000000000000000000000000000000A0
:1040200000000000000000000000000091410008B6
:1040300000000000000000009341000895410008C6
:1040400097410008000000009741000897410008D0
:104050009741000897410008974100086157000800
:10406000000000004D5600089741000897410008E5
:104070008D4E00089741000897410008000000009D
:10408000018500089986000800000000957B000863
:10409000E57E0008957F00084580000897410008EC
:1040A0009741000897410008974100089741000890
:1040B0009741000800F002F800F038F80CA030C872
:1040C000083824182D18A246671EAB4654465D4694
:1040D000AC4201D100F02AF87E460F3E0FCCB64626
:1040E0000126334200D0FB1AA246AB4633431847A1
:1040F000D4BD0000F4BD00000023002400250026EC
:10410000103A01D378C1FBD8520700D330C100D593
:104110000B60704710B5642902D100F08BF810BD18
:10412000002010BD1FB51FBD10B510BD00F055FE1D
:104130001146FFF7F7FF05F0CFFB00F06DFE03B46B
:10414000FFF7F2FF03BC00F06FFE000070B50546FC
:104150000C46164602E00FCC0FC5103E102EFAD2C8
:10416000082E02D303CC03C5083E042E07D301CC8E
:1041700001C5361F03E021782970641C6D1C761E72
:10418000F9D270BD0748804707480047FEE7FEE7C1
:10419000FEE7FEE7FEE7FEE704480549054A064B51
:1041A00070470000FD760008B54000083805002083
:1041B000380B002038070020380700200FB41CB54A
:1041C000074B06AA7B4469460090059800F0D3FD92
:1041D0000020694600F0E2FD1CBC08BC04B0184792
:1041E000D50B000070B5044685690068C10601D58D
:1041F000302600E02026C00707D070BD6268304638
:10420000A1689047206A401C20626D1EF6D570BDE3
:1042100070B5044685690078C00707D170BD626833
:10422000A16820209047206A401C20626D1EF6D5B0
:1042300070BD0000F7B5002575291068009914A617
:1042400011D0C046C046002802DA404211A608E05C
:10425000009909688A0701D50FA602E0490704D52D
:104260000EA6012501E0C046C046009F0024243769
:1042700004E000F098FD30313955641C0028F8D175
:104280002B4632462146009800F018FDFEBD000086
:10429000000000002D0000002B00000020000000A6
:1042A000F3B50446002081B020622046E1688847CB
:1042B00000287AD0252802D06268A16871E0E16800
:1042C00020460025884706460020E0610746A06199
:1042D0002A2E0AD0304604F08FFF002827D0B800DD
:1042E0000019303E0090866119E00298BA00121958
:1042F00002C8916102902046E1688847012F064676
:1043000017D1E06900281FDA202085431CE00098BF
:104310000A21806948430099801930388861204615
:10432000E1688847064604F067FF0028EFD1012FB7
:104330000AD02E2E08D12046E16888470646202064
:1043400005437F1C022FC3DBA069002803DA40422B
:10435000A06101200543E80701D010208543002E0D
:1043600023D030464138192803D80120C002054324
:104370002036204625603146029A1546FFF7CAFED0
:1043800000280BD0012806D0ED1DE808C000083039
:1043900002908AE709E02D1D029586E762683046A3
:1043A000A1689047206A401C7EE7206AFEBD00009D
:1043B000034670B502460B439B070FD10E4CE60136
:1043C00000E008C208C91D1B9D433542F9D0D9B28F
:1043D0001170521C00290DD01B0AF8E70B78491CFC
:1043E0001370521C002B05D00B78491C1370521C03
:1043F000002BF3D170BD00000101010130B5441C58
:1044000003E00178401C00290DD08107F9D10B4B46
:10441000DD0104C8D11A91432940FAD0001B0A06D5
:1044200003D0C01E30BD001B30BD0A0401D0801E69
:1044300030BD0902FCD0401E30BD00000101010169
:10444000421E5378521C002BFBD10B78491C137071
:10445000521C002BF9D17047F8B5042A2CD38307DE
:1044600012D00B78491C0370401C521E83070BD0DE
:104470000B78491C0370401C521E830704D00B7834
:10448000491C0370401C521E8B079B0F05D0C91A94
:10449000DF002023DE1B08C90AE0FFF757FEF8BD46
:1044A0001D4608C9FD401C46B4402C4310C0121FD5
:1044B000042AF5D2F308C91A521EF0D40B78491C0D
:1044C0000370401C521EEAD40B78491C0370401C38
:1044D000012AE4D409780170F8BD01E004C0091F85
:1044E0000429FBD28B0701D50280801CC90700D0AC
:1044F0000270704700290BD0C30702D00270401C25
:10450000491E022904D3830702D50280801C891E1C
:10451000E3E70022EEE70022DFE7002203098B42F7
:104520002CD3030A8B4211D300239C464EE0034652
:104530000B433CD4002243088B4231D303098B4206
:104540001CD3030A8B4201D394463FE0C3098B423C
:1045500001D3CB01C01A524183098B4201D38B0195
:10456000C01A524143098B4201D34B01C01A524138
:1045700003098B4201D30B01C01A5241C3088B427D
:1045800001D3CB00C01A524183088B4201D38B0068
:10459000C01A524143088B4201D34B00C01A52410A
:1045A000411A00D201465241104670475DE0CA0FE1
:1045B00000D04942031000D34042534000229C46A1
:1045C00003098B422DD3030A8B4212D3FC228901AB
:1045D00012BA030A8B420CD3890192118B4208D381
:1045E000890192118B4204D389013AD0921100E0E3
:1045F0008909C3098B4201D3CB01C01A52418309F7
:104600008B4201D38B01C01A524143098B4201D323
:104610004B01C01A524103098B4201D30B01C01A4E
:104620005241C3088B4201D3CB00C01A52418308C8
:104630008B4201D38B00C01A5241D9D243088B421E
:1046400001D34B00C01A5241411A00D201466346C1
:1046500052415B10104601D34042002B00D5494225
:10466000704763465B1000D3404201B50020C0464E
:10467000C04602BD7047704770470000F0B50C4659
:10468000871A9C410D46861A9D4103D2C01BA14149
:10469000D21963410D0D1F0DC94EEC1BAE435CD00A
:1046A0007F057F0D0026002F51D02D05AC46A94374
:1046B000DD020123ED0A1B051D4320231B1B24D40F
:1046C0001746E740381871412F46E740CC199D4006
:1046D0002818314661410C0D27D161449A4013D509
:1046E0000023401C594152000ED1400840000122D5
:1046F0004B005205D34207D305204007C14201D5E4
:10470000B04900E0B0493046F0BD6B00002A00D04F
:1047100001229A181F23203C1B1B01D5002302E015
:10472000E540281871410C0DD7D001242405091942
:10473000C407CD0740084908E40F28436144002C12
:10474000D5D00024401C61419A40D0D1CDE76A0504
:10475000520DD9D1C90FC907D5E79C4D4E0000288D
:1047600001D0012400E0002434195F00002A01D0A8
:10477000012600E00026BE19954FAC420CD8AE428F
:104780000AD8B44206D001256D05EC42BCD01046D3
:104790001946F0BD9942FCD000203946F0BDF0B575
:1047A0001FB40C460F46811A9F412546861A9D412B
:1047B00006D20125ED076F40401ABC4152187B41DB
:1047C000210D1E0D8D1BAC467D4D8D437ED0750594
:1047D0006D0D7CD00D05AE46AC431B031B0B794D14
:1047E00052429D41202366469B1B14D31746F74037
:1047F000381800260090744160462F460741E4199E
:1048000000989D402818664116D4714671189A4048
:1048100025D5012320E093182A466A415200002B37
:1048200000D0521C1E23203E9B1B002B61DD354116
:10483000EE1728186641E8D5001876415B1C9A40AF
:1048400000D3401C4B05F3181524E34010D3002B74
:1048500052D071467118D30FC01802D3491C05B04D
:10486000F0BD0123DB079A42F9D140084000F6E78A
:1048700001225205B21801D1002853D00123CC0ADD
:10488000DB029943891E002A08D1020C03D0020CD6
:104890000004103902E00246002020390023550BA5
:1048A00005D112020823550B01D152010D23550CDD
:1048B00001D112011B1DD50C01D192009B1C150DBD
:1048C00001D152005B1C2025EE1A01E02CE022E011
:1048D0000546F54015439840CA1AE10769181305C3
:1048E000C918002ABBDA032040070818C10FC907FE
:1048F0000FE071466118B2E7F107400808437110F4
:1049000071444A000CD001235B059A42A7D2C90F1B
:10491000C9070020A3E74905490D26D1002001E081
:104920000028F4D100219AE7284D6600002801D024
:10493000012100E0002171185F00002A01D001264A
:1049400000E00026BE19224FA94210D8AE420ED870
:10495000B14208D001256D05E94206D01946A802EA
:10496000414010467BE79C4201D0214677E700207A
:10497000394674E710B50C465C4005D50124E407C0
:104980006340FFF70CFF10BDFFF778FE10BD30B499
:104990000C465C4004D50124E407634030BC6DE65E
:1049A00030BCFCE670B50124E40761400D465D4073
:1049B00002D4FFF763FE70BD6340FFF7F0FE70BDE9
:1049C000FF0700000000F0FF0000F07F0000E0FFA4
:1049D0000000F87F0346CA02400D10B510430A15C7
:1049E00004D00124E4072043002A05DB0A4CA21A64
:1049F00004D4D040FF2A00DD002010BD4A00002B67
:104A000001D0012000E00020101801225205D04200
:104A1000F2D8C817C04310BD1E0400001F22030CAB
:104A200002D10F22000402D0030E03D004E00020C4
:104A3000014670470002083A030F01D10001121F1E
:104A4000830F01D18000921E002801DB4000521E1E
:104A5000120551184205C012411810467047C10F87
:104A6000C90700D04042012292071143D6E7012135
:104A70008907D3E7F0B58B4C0F09254689B0BD43B4
:104A80007BD01D092646AE43FAD00E465E40274035
:104A9000F60F3E43254071D024012142FBD0FF2474
:104AA000AD19A4042D1B039501252D05DB02DB0A9E
:104AB000C9022B43C90A29431E010901040F130F20
:104AC000050121431701880B820391432D098C4670
:104AD000A90B1E438A039543B30B9A0396433F09E0
:104AE000BA0B9403A74302962E467E430497B6461C
:104AF0004E19D7190C460196544305977E43371B30
:104B00007646BF1B3601B646BE0B36190096764672
:104B1000BC043719009C01D3641C00946400002F6E
:104B200001D001263443029E049F754366467E43AE
:104B30000496760034196E0034190094029C019E8C
:104B40001C196643751BAE46069465464519059CBF
:104B500005956C43594375460891691A0191049E65
:104B600001465143A41B0491611A009C0791E10680
:104B700005D061090122114302E072E06EE0610993
:104B8000089D00272C0A2D066918049D7C412A0ADD
:104B90002D066918019D6241AC0DAD026D1854419E
:104BA000079A910D920255196141029A6446584341
:104BB0005443069B059A5A43121A131B9A0E9B01E3
:104BC0005B187A41010B0005C3185141220A2006E7
:104BD00044195A419A4200D2491C012040028142A4
:104BE00003D315230226F64302E014230326F643DB
:104BF0002020C51AA9401746AF40DA400A43204694
:104C00000399D8400914731819055118039A3843A9
:104C1000D2075140AC4009D00122944006D3002273
:104C2000401C5141002C01D1400840001E4A9342D3
:104C300012D3012203989206904207DB0520400719
:104C400009181A480143C012414004E003204007FC
:104C50000818C10FC907002009B0F0BD0020F107F6
:104C6000FAE705180C464C4111486D42A04115D396
:104C700094181A465A410E48644290410ED30120BE
:104C80004A004005824209D35A00824206D3594065
:104C9000C90F084AC90700201143DDE70020064973
:104CA000DAE700000000FF07FE070000FFFFFF7FBC
:104CB0000000E0FF0000F07F0000F87FFFB5044631
:104CC0000D4681B0243000902168880604D510225A
:104CD000E0699143216000E00120A84201DD471B0B
:104CE00000E000270498A1697A191018081AA06139
:104CF0002078C00602D42046FFF774FA002608E0A8
:104D000003986268A168805D9047206A401C761C09
:104D1000206204988642F3DB2078C0060AD520463C
:104D2000FFF760FA06E06268A16830209047206AC9
:104D3000401C206238467F1E0028F4DC07E0009803
:104D40006268A168405D9047206A401C2062284646
:104D50006D1E0028F3DC2046FFF75AFA2078000683
:104D600002D5022005B0F0BD0120FBE701694A1C15
:104D700002610878704700B58FB00291002105915B
:104D80000549019379440391114604906846FFF761
:104D900087FA0FB000BD0000E5FFFFFF0A68107042
:104DA000521C0A60704701468008081A0209101850
:104DB000020A1018020C1018C008820012185200C3
:104DC000891A01E0401C0A390A29FBD27047000009
:104DD00000487047D804002070477546FFF7F8FF79
:104DE000AE46050069465346C008C000854618B067
:104DF00020B5FFF7D1F960BC00274908B646002668
:104E0000C0C5C0C5C0C5C0C5C0C5C0C5C0C5C0C57A
:104E1000403D49008D46704710B50446C046C04627
:104E20002046FFF78CF910BD01491820ABBEFEE704
:104E30002600020070B58C180578401C6B075B0FCC
:104E400001D10378401C2A1106D10278401C03E0EE
:104E50000678401C0E70491C5B1EF9D12B0705D447
:104E60000023521E0DD40B70491CFAE70378401C36
:104E7000CB1A921C03E01D780D70491C5B1C521E5E
:104E8000F9D5A142D8D3002070BD00007348007846
:104E9000002802D001287DD1C3E0714800780028A5
:104EA00079D070480068704988806D480078012882
:104EB0004DD1084680886D490968401A6C490968D7
:104EC00040186B4908600846006800096749086097
:104ED0000846006867490968401A67490968401828
:104EE000654908600846006800096249086008468C
:104EF000006862490968401A6149096840186049B8
:104F000008600846006800095C49086008460068B7
:104F10005C490968401A5C49096840185A490860A8
:104F20000846006800095749086008460068574964
:104F3000884203D901205649087008E051480068AA
:104F4000FF21C900884202D200205149087044481C
:104F50000078022850D1444880884E490968401A98
:104F60004D49096840184C49086008460068000926
:104F7000484908600846006848490968401A484995
:104F80000968401846490860084600680009434916
:104F9000086001E060E03BE00846006841490968BC
:104FA000401A4149096840183F49086008460068AE
:104FB00000093C490860084600683C490968401AF5
:104FC0003B49096840183A490860084600680009EA
:104FD00036490860084600682C49884203D90120F8
:104FE0003449087008E031480068FF21C900884250
:104FF00002D200202F490870002019490870194872
:10500000403880681021084316494039886007E01D
:1050100014484038006804210843124940390860A8
:105020001AE025480078002802D001280AD104E0BF
:105030000C4800680C49088004E00A4800680A49E6
:10504000488000BF00BF00200449087001204002D2
:1050500004494039886200BF00BF7047A4010020A6
:105060002A02002040240140C8000020E80100205E
:10507000D8010020EC010020DC010020F00100201C
:10508000E0010020F4010020E401002008080000F5
:105090001C02002008020020F80100200C02002061
:1050A000FC01002010020020000200201402002059
:1050B000040200201D020020A501002010B52D488B
:1050C00080690121490208432A4988610846406BEA
:1050D000012108432749486300BF2648406B02214D
:1050E00008400028F9D0234840690121084321499C
:1050F0004861214800680C2108431F4908600920C5
:10510000C0060068F02108430921C90608601B4851
:10511000806A01214902084318498862084680686C
:10512000490508431549886000BF14488068C00FCE
:10513000C0070028F9D111488068012108430F49B0
:10514000886000BF0D480068C007C00F0028F9D074
:1051500004200A4948600C20002805DBC206D20E54
:1051600001219140064A116000BF00210C2003F08C
:10517000CBFF10BD00100240000400480024014095
:1051800000E100E010B5134800F032FB04210840B4
:10519000002813D00920C0068069C90108430921ED
:1051A000C90688610A2004F0EFF90920C006806A68
:1051B0000121490208430921C9068862054800F017
:1051C00017FB08210840002803D06421DC2004F0EC
:1051D000A5FC10BD0300030810B51E4800F008FB35
:1051E00004210840002814D00920C0068069C901A4
:1051F00008430921C9068861FF20F53004F0C4F98D
:105200000920C006806A0121490208430921C90614
:105210008862104800F0ECFA0221084000280ED005
:105220000D4800783C2148437D21C90048430B4983
:10523000086001200A4908700A480B49C8630548FC
:1052400000F0D6FA08210840002801D001F02EFD18
:1052500010BD00000300030821010020B40100205C
:10526000C600002088130000002C014010B51F4824
:1052700000F0BEFA04210840002813D00920C0061F
:105280008069C90108430921C9068861642004F0C6
:105290007BF90920C006806A0121490208430921DF
:1052A000C9068862114800F0A3FA022108400028CC
:1052B0000ED00F4800783C2148437D21C900484367
:1052C0000C49086001200C4908700C480C49C8635F
:1052D000064800F08DFA08210840002805D07D21FD
:1052E00009013720000104F019FC10BD0300030878
:1052F00021010020B4010020C60000208813000016
:10530000002C014010B500F077F80920C006806934
:105310000121490208430921C9068861642004F07B
:1053200033F90920C006806A012149020843092196
:10533000C9068862642004F027F90920C006806944
:105340000121490208430921C9068861642004F04B
:105350001BF90920C006806A01214902084309217E
:10536000C9068862642004F00FF90920C00680692C
:105370000121490208430921C9068861642004F01B
:1053800003F90920C006806A012149020843092166
:10539000C9068862642004F0F7F80920C006806915
:1053A0000121490208430921C9068861642004F0EB
:1053B000EBF80920C006806A01214902084309214F
:1053C000C9068862642004F0DFF80920C0068069FD
:1053D0000121490208430921C9068861642004F0BB
:1053E000D3F80920C006806A012149020843092137
:1053F000C906886210BD000010B5FA2137200001EF
:1054000004F08CFB7D21C900204804F087FB204874
:1054100004F0BAF8FA211D4804F080FB7D21C90090
:105420003720000104F07AFB194804F0ADF8FA21A6
:105430001648803004F072FBFA21144804F06EFB29
:10544000FA211248803004F069FBFA210F4804F079
:1054500065FBFA210D48803004F060FBFA210B480F
:1054600004F05CFBFA210948803004F057FBFA2174
:10547000064804F053FBFA210448803004F04EFB48
:105480007D21C900034804F049FB10BD160400004B
:10549000EE020000260500000920C00600680F216A
:1054A000890588430921C90608600846C0680521A6
:1054B000890508430921C906C860074800680F210B
:1054C00009048843044908600846C06805210904A6
:1054D00008430149C8607047000400480848406913
:1054E00040210843064948610020C043054908613E
:1054F000084680680121084302498860704700001F
:10550000001002400030024010B502460B46002158
:1055100000BF13E08800105C00068C00641C145D62
:10552000240420438C00A41C145D240220438C001E
:10553000E41C145D20431A4C2060491C98088842E2
:10554000E8D89807800F002826D09807800F0128F8
:1055500004D0022806D003281DD10DE0505C104C69
:10556000206018E08800105C04028800401C105C79
:1055700004430B4804600EE08800105C00048C00BB
:10558000641C145D240220438C00A41C145D204381
:10559000034C206000BF00BF0148006810BD000040
:1055A00000300240002027490860084600680121B9
:1055B000084324490860832023490860084600689E
:1055C0000121090408432049086000BF1E48006803
:1055D0000121490408400028F8D000201A494860F9
:1055E00008464068052109040843174948600846F1
:1055F00000680121090608431349086000BF1248EA
:1056000000680121490608400028F8D00E4840688B
:10561000022108430C49486000BF0B48406808213C
:1056200008400828F9D10848806901210843064943
:1056300088610846C069090408430349C86100201D
:105640007047000000200240001002407047000038
:1056500010B540480068FF21013108433D4908600A
:105660003D4840688006800F0A2148433A4949680E
:105670000907090F401839490870CA20364948629D
:10568000532048620846C068802108433249C860F8
:1056900000BF3148C068402108404028F9D12E4859
:1056A0004068800980012C4948600846C068802114
:1056B00088432949C86000BF2748C06820210840A6
:1056C0002028F9D1FF2024494862CA20486253208B
:1056D00048620846C068802108431F49C86000BF6F
:1056E0001D48C068402108404028F9D11B48007877
:1056F0001F2814DA0A2119480078401CFEF717FF0A
:1057000004010A2115480078401CFEF710FF2046CE
:1057100008431149496808430F49486006E00E48AC
:10572000406880098001401C0B4948600A48C068F5
:10573000802188430849C86000BF0748C06820210D
:1057400008402028F9D1FF200349486203F0AEFB4E
:1057500010BD000000700040002800408C010020B7
:10576000034840691B210902084301494861704709
:105770000004014003480069802108430149086191
:10578000704700000020024010B5044600F03EF8CB
:1057900000BF1648C068C007C00F0028F9D11348E1
:1057A0000069022108431149086108464461006903
:1057B000402108430D49086100BF0C48C068C0077C
:1057C000C00F0028F9D10948C068202108400028EE
:1057D00002D020200549C86004480069022188439E
:1057E00002490861FFF7C6FF10BD0000002002401B
:1057F00001460878704710B50346002003E01C5CA2
:105800000C54441CE0B29042F9DB10BD00BF0948C3
:10581000C068C007C00F0028F9D106480069802180
:105820000840002804D00448024948600348486002
:10583000704700000020024023016745AB89EFCD8F
:1058400070B5C0B004460D46FF2101316846FEF731
:1058500062FEE00AC602FF2269463046FFF7CBFF30
:105860006005400D69460D543046FFF78DFFFF225D
:105870006946304600F002F840B070BDF0B5C1B0E6
:1058800004460E461746FF21013101A8FEF743FEEC
:10589000E0B20090E00AC502FE2201A92846FFF707
:1058A000AAFF002006E0325C0099091801AB5A54A7
:1058B000411CC8B2B842F6DB2846FFF765FFFFF788
:1058C000A5FF174800690121084315490861002018
:1058D0001AE001A9095C01AA431CD25C120211431F
:1058E000298000BF0E49C968C907C90F0029F9D12D
:1058F0000B49C96820221140002902D02021084A02
:10590000D160AD1C811CC8B2FE28E2DB04480069EE
:105910004008400002490861FFF72CFF41B0F0BD8C
:1059200000200240F8B507460E4614463D4668057D
:10593000400D002802D12846FFF726FFFFF766FF3B
:105940002B48006901210843294908612046E10FDD
:10595000091849104900611A1DD1002018E0315C76
:10596000421CB25C12021143298000BF2049C96861
:10597000C907C90F0029F9D11D49C9682022114062
:10598000002902D020211A4AD160AD1C811CC8B266
:10599000A042E4DB23E0002018E0315C421CB25C52
:1059A00012021143298000BF1149C968C907C90FF4
:1059B0000029F9D10E49C96820221140002902D0DE
:1059C00020210B4AD160AD1C811CC8B2611E8142EE
:1059D000E3DC601E305CFF21090240182880044887
:1059E00000694008400002490861FFF7C3FEF8BDA6
:1059F00000200240232040041E4948610520C006C3
:105A00000921C906086000204860032080068860DC
:105A10004810C86040000068012108430921C906F8
:105A20000860084600680121890408430921C90665
:105A3000086008460068C90008430921C9060860D3
:105A4000084680690121C90308430921C906886104
:105A50000120000508490860002048608860C8608F
:105A60000F20000305490860002048608860C86076
:105A70007047000000100240000400480014004875
:105A8000012000BF0028FDD17047000010B5374845
:105A90000068FF2101310843344908603448006838
:105AA0008002800F0A214843314909680903090F20
:105AB000401830490870CA202D4948625320486276
:105AC0000846C068802108432949C86000BF2848AB
:105AD000C068402108404028F9D1254800683F218E
:105AE00009048843224908600846C0688021884329
:105AF0001F49C86000BF1E48C068202108402028F8
:105B0000F9D1FF201A494862CA20486253204862EE
:105B10000846C068802108431549C86000BF144882
:105B2000C068402108404028F9D112480078172861
:105B300013DA0A210F480078401CFEF7F8FC040530
:105B40000A210C480078401CFEF7F1FC08042043B1
:105B5000074909680843064908600548C06880216C
:105B600088430349C860FF20486210BD00700040B0
:105B7000002800408C0100201F48C0690121490510
:105B800008431D49C8610846006B102108431A49A3
:105B900008631A4800680F21090388431749086001
:105BA000084600680521490308431449086008466F
:105BB0004068C021084311494860084680680F21A9
:105BC000090308430D4988600846006A1121090647
:105BD00008430A49086200200949086009484860EA
:105BE000C813886008480861084600680121084316
:105BF000034908607047000000100240000400489C
:105C0000005400400080000209020020F0B585B079
:105C100081480078032813DC8048017880480068B8
:105C200000F070F97C4801787C480078401CFEF751
:105C30007EFCCCB221467A48006800F037F9E8E0F3
:105C40007548017875480078401CFEF770FCC8B2B2
:105C5000724908700846007800280CD17048006826
:105C600000F0E6F800216E48006800F01FF90020FF
:105C70006C490870CDE06B48007802285ADA694810
:105C80000078401C6749087064490978624A1278B4
:105C90008918481E60490978FEF749FC08016049E7
:105CA00009680E583046FEF7A9FBC4B25B49097873
:105CB000594A12788918481E57490978FEF737FC67
:105CC0000801574909680D5800205749029103906F
:105CD000564903C90191009052480078401E122293
:105CE0005043643081B223462A46142001F0E8FE76
:105CF0004A49097809014A4A12685058FEF77EFB62
:105D0000C4B24948002102910390484903C9019156
:105D10000090424800780001414B1B681A584148E6
:105D2000007812235843014664312346142001F0C1
:105D3000C7FE6EE002203B4908700020A0238022AD
:105D40006421009001F034FD002435E033490978E6
:105D5000314A12788918891E08192F490978FEF7E7
:105D6000E6FB08012E4909680F583846FEF746FB46
:105D7000C5B22A490978284A12788918891E081953
:105D800025490978FEF7D3FB0801254909680E5813
:105D90000020254902910390244903C901910090F4
:105DA000204612225043014664312B4632461420CD
:105DB00001F086FE601CC4B2022CC7DB16480178D5
:105DC00016480078FEF7B3FB0801154909680E581C
:105DD0003046FEF713FBC5B20F4801780F48007834
:105DE000FEF7A5FB08010E4909680C580E48002172
:105DF000029103900D4903C9019100900948007870
:105E000012225043014664312B462246142001F0F1
:105E100057FE05B0F0BD0000BA010020720100205D
:105E20009C01002077010020FFFF000058010020A6
:105E30007FB504460020A02380226421009001F059
:105E4000B7FC002519E029016058FEF7D7FAC6B261
:105E50000020134902910390124903C90191009057
:105E600028012258284612235843014664313346FC
:105E7000142001F025FE681CC5B220790A21FEF726
:105E800056FB032804DC20790A21FEF750FB00E0D2
:105E90000320A842D7DC0020034908707FBD000022
:105EA000FFFF000058010020770100207FB5054664
:105EB0000C4621016858FEF7A1FAC6B20E4800212F
:105EC000029103900D4903C90191009020012A58C5
:105ED000204612235843014664313346142001F012
:105EE000EFFD2101491908790A21FEF720FBC8B20C
:105EF000034908707FBD0000FFFF0000580100202B
:105F0000720100207FB505460C4621016858FEF756
:105F100075FAC6B20020094902910390084903C9E5
:105F20000191009020012A5820461223584301462F
:105F300064313346142001F0C3FD7FBDFFFF000034
:105F400058010020F0B585B07648007803281BDCA6
:105F50007548017875480068FFF7D4FF72480078EB
:105F6000002803DD70480078401E06E06F4909688C
:105F700008790A21FEF7DBFA401EC4B221466B48BD
:105F80000068FFF793FFCBE067490978654A12780C
:105F90008918481E63490978FEF7C9FAC8B26249F0
:105FA000087063480078002854DD61480078401E7E
:105FB0005F4908705B4801785B480078401CFEF739
:105FC000B6FA0801594909680E583046FEF716FA24
:105FD000C4B25448017854480078401CFEF7A7FA30
:105FE0000801524909680D58002052490291039056
:105FF000514903C9019100904D480078401C12227C
:1060000050430146643123462A46142001F058FDCE
:10601000454909780901454A12685058FEF7EEF9DA
:10602000C4B24448002102910390434903C901913D
:1060300000903D48007800013C4B1B681A583C48D2
:10604000007812235843014664312346142001F09E
:1060500037FD65E0002036490870A02380226421C6
:10606000009001F0A5FB01242DE02F4909780819C3
:106070002C490978FEF75BFA08012C4909680F588A
:106080003846FEF7BBF9C5B22749097808192549F2
:106090000978FEF74CFA0801244909680E580020D7
:1060A000244902910390244903C90191009020469C
:1060B00012225043014664312B463246142001F02F
:1060C000FFFC601CC4B2032CCFDB164801781648D5
:1060D0000078FEF72CFA0801144909680E5830467A
:1060E000FEF78CF9C4B20F4801780F480078FEF72C
:1060F0001EFA08010D4909680D580E480021029149
:1061000003900D4903C901910090094800781222BB
:1061100050430146643123462A46142001F0D0FC46
:1061200005B0F0BDBA010020720100209C010020E2
:1061300077010020FFFF00005801002070B5C0B0BB
:106140000646802120A8FEF7E6F980216846FEF782
:10615000E2F94248FFF74CFB0446FF2C00D1002433
:10616000142C51D100F0D4FD054629466846FEF7AF
:106170001FF900F07FFE054629466846FEF760F9E4
:1061800037A16846FEF75CF931466846FEF758F9D4
:1061900013243448FFF7F8FA3348FFF7F5FA0125DE
:1061A00010E0E901314A8818802220A9FFF723FB7B
:1061B000691EC9012B4A8818802220A9FFF7B2FB6B
:1061C000681CC5B2142DECDB802269462848FFF715
:1061D000A9FB2648FFF7D8FA2648FFF7D5FA00258D
:1061E0000FE0E9011F4A8818802220A9FFF703FB6E
:1061F000E9011E4A8818802220A9FFF793FB681C3A
:10620000C5B2142DEDDB21E000F082FD05462946E4
:1062100020A8FEF7CDF800F02DFE0546294620A85F
:10622000FEF70EF90EA120A8FEF70AF9314620A8C4
:10623000FEF706F920A8FEF7E1F8401CC5B2E1011F
:106240000A4A88182A4620A9FFF76CFB601CC1B2D5
:106250000248FFF7F5FA40B070BD000011000308D6
:10626000202020000018030800200308000803086D
:1062700080210308001003087FB505460020A023F5
:1062800080226421009001F093FA002424E0E101CF
:10629000481909221549FFF7AEFA1448FEF7AEF87F
:1062A000092803D21148FEF7A9F800E00920C6B278
:1062B00000200F49029103900E4903C901910090FB
:1062C000204612225043014664313346074A1420C7
:1062D00001F0F6FB601CC4B2032CD8DB0021284679
:1062E00000F00CF80020044908707FBD3004002045
:1062F000FFFF000058010020780100207FB505460F
:106300000C46E101481909221149FFF774FA1048B7
:10631000FEF774F8092803D20D48FEF76FF800E085
:106320000920C6B20B480021029103900A4903C913
:1063300001910090204612225043014664313346B9
:10634000034A142001F0BCFB044804807FBD000018
:1063500030040020FFFF00005801002074010020DD
:106360007FB505460C46E101481909221049FFF79F
:1063700042FA0F48FEF742F8092803D20C48FEF70C
:106380003DF800E00920C6B200200A4902910390BE
:10639000094903C901910090204612225043014649
:1063A00064313346024A142001F08AFB7FBD0000AD
:1063B00030040020FFFF0000580100207FB5044694
:1063C000FA482018002804D02121C902401A13D10C
:1063D0000BE0F748FFF70CFA0502F548401CFFF701
:1063E00007FA2818F349088006E0F1480B30FFF758
:1063F000FFF9F049088000BF00BFEF4800690121A4
:1064000049020840002818D1EC48007800287AD1C9
:10641000E8480088032811DCE94801782046FFF7A6
:106420009FFFE4480188E6480088401CFEF77FF89B
:10643000CDB229462046FFF761FF03E1E04800881E
:10644000401CDC490988884203D12046FFF714FF2D
:10645000F8E0DC480078022856DAD9490988C901F1
:1064600008190922D849FFF7C6F9D748FDF7C6FF32
:10647000092803D2D448FDF7C1FF00E00920C5B2C6
:106480000020D24902910390D14903C901910090A3
:10649000CC480078CB4A1278521CCA4B1A70122290
:1064A0005043014664312B46C74A142001F008FBD3
:1064B000C3490988491C89B2C14A1180C901081918
:1064C0000922C149FFF797F9BF48FDF797FF09284F
:1064D00003D2BD48FDF792FF00E00920C5B2BB48DA
:1064E000002102910390BA4903C901910090B54877
:1064F000007812225043014664312B46B24A1420E0
:1065000001F0DEFA9EE05FE00020A02380226421FB
:10651000009001F04DF9AA480088401CA849088065
:1065200008460088801EAB490880002527E0A9495D
:1065300009884919C90108190922A349FFF75BF91C
:10654000A148FDF75BFF092803D29F48FDF756FFDE
:1065500000E00920C6B200209C49029103909C49AA
:1065600003C901910090284612225043014664312C
:106570003346954A142001F0A3FA681CC5B2022DD7
:10658000D5DB94490988891CC901081909228E495B
:10659000FFF731F98C48FDF731FF092803D28A480B
:1065A000FDF72CFF00E00920C5B2884800210291C8
:1065B0000390874903C92B46834A019100908821A3
:1065C000142001F07DFA3DE00020A0238022642108
:1065D000009001F0EDF880480078401C40B27E4900
:1065E0000870801C7D490978884205DB7A4800786C
:1065F000401E40B2784908707749002008560B21A8
:106600004843714940187649086008460068FDF71C
:10661000F5FE212801D3212003E071480068FDF731
:10662000EDFEC5B26F481F21C9020291039068496F
:1066300003C92B460191009069486421026800203B
:1066400001F03EFA0920C00600690121C902084094
:10665000002819D159480078002870D15548008881
:10666000032812DC564801782046FFF779FE54488B
:106670000088002803DD52480088401E00E0022008
:10668000C1B22046FFF73AFE15E14E4800780028D7
:1066900056DD4B490988C901081909224A49FFF703
:1066A000AAF84948FDF7AAFE092803D24648FDF793
:1066B000A5FE00E00920C5B20020444902910390E4
:1066C000434903C9019100903E4800783D4A127841
:1066D000521E3C4B1A7012225043014664312B4625
:1066E000394A142001F0ECF935490988491E89B26C
:1066F000334A1180C901081909223349FFF77BF891
:106700003148FDF77BFE092803D22F48FDF776FEBE
:1067100000E00920C5B22D480021029103902C49C8
:1067200003C9019100902748007812225043014686
:1067300064312B46244A142001F0C2F9BBE083E007
:106740000020A02380226421009001F031F81C4930
:106750000988184A12888918481E16490988FDF7C1
:10676000E6FE88B2164908800988C901081909227D
:106770001549FFF740F81448FDF740FE092803D2F9
:106780001148FDF73BFE00E00920C5B20F4800218B
:10679000029103900E4903C92B460B4A01910090C8
:1067A0006421142001F08CF901254AE00000FEF775
:1067B0000600030870010020000400487601002054
:1067C000740100207801002030040020FFFF000049
:1067D0005801002080010020790100207A0100206A
:1067E0007C010020FF7F0000724909884819724926
:1067F0000988FDF79CFEC801061909226F49304639
:10680000FEF7F9FF6D48FDF7F9FD092803D26B4843
:10681000FDF7F4FD00E00920C6B2002068490291AE
:106820000390684903C90191009028461222504301
:10683000014664313346614A142001F041F9681C75
:10684000C5B2032DD0DB36E00020A02380226421D6
:10685000009000F0ADFF5C480078401E40B25A49FD
:106860000870002801DA00200870574900200856F7
:106870000B214843514940185449086008460068B4
:10688000FDF7BCFD212801D3212003E04F4800681B
:10689000FDF7B4FDC5B24E481F21C9020291039015
:1068A000484903C92B460191009048486421026879
:1068B000002001F005F947480069FF210131084037
:1068C000002802D1204600F097F80920C006006990
:1068D00001210903084000286BD13F4800780028B7
:1068E0004ED03E48007800284AD13B4908703649CE
:1068F0000870A02380226421009000F059FF002539
:106900003BE02C490988364A1278891A48192A49E5
:106910000988FDF70CFEC8010619092227493046EF
:10692000FEF769FF2548FDF769FD092803D22348D2
:10693000FDF764FD00E00920C6B229480078A842AE
:1069400001D0002000E01E4825490978A94201D065
:106950001B4900E00021029103901A4903C90191EB
:106960000090284612225043014664313346134AB0
:10697000142001F0A5F8681CC5B2032DC1DB18E096
:10698000184819490860FFF753FA00211548FFF726
:106990008DFA00201549087010480078002805D0AD
:1069A00000200E490870012011490870002011498B
:1069B00008707FBD740100207001002030040020A9
:1069C000FFFF000058010020790100207C01002019
:1069D000FF7F00000004004876010020BC01002079
:1069E00078010020ACFA00089C010020BE010020C4
:1069F000BF010020770100207FB5044624490988A3
:106A0000C901081980222349FEF7F5FE0020A023C2
:106A100080226421009000F0CBFE1E48FDF7EEFCC2
:106A2000212803D81B48FDF7E9FC00E02120C5B26E
:106A300019481F21C90202910390184903C92B4626
:106A4000144A019100906421002001F039F81148A6
:106A5000FDF7D4FC05460B21FDF75FFD002907D1AA
:106A60000C48FDF7CBFC05460B21FDF756FD07E072
:106A70000848FDF7C3FC05460B21FDF74EFD401C01
:106A800007490870012007490870074908707FBD51
:106A90007401002030040020FF7F00005801002016
:106AA0007A010020BE0100207601002010B5374891
:106AB0000068FF2101310843344908603448006808
:106AC0000004000F0A214843314909680905090FEC
:106AD000401830490870CA202D4948625320486246
:106AE0000846C068802108432949C86000BF28487B
:106AF000C068402108404028F9D1254800687F211E
:106B000009028843224908600846C06880218843FA
:106B10001F49C86000BF1E48C068202108402028C7
:106B2000F9D1FF201A494862CA20486253204862BE
:106B30000846C068802108431549C86000BF144852
:106B4000C068402108404028F9D1124800783B280D
:106B500013DA0A210F480078401CFDF7E8FC040313
:106B60000A210C480078401CFDF7E1FC0802204394
:106B7000074909680843064908600548C06880213C
:106B800088430349C860FF20486210BD0070004080
:106B9000002800408C01002010B541480068FF210A
:106BA000013108433E4908603E484068C004C00FB8
:106BB0000A2148433B4949680905090F40183A49E9
:106BC0000870CA2037494862532048620846C068A6
:106BD000802108433349C86000BF3248C068402163
:106BE00008404028F9D12F4840681F2109028843F6
:106BF0002C4948600846C068802188432949C860FC
:106C000000BF2848C068202108402028F9D1FF2073
:106C100024494862CA204862532048620846C06836
:106C2000802108431F49C86000BF1E48C06840213A
:106C300008404028F9D11C4800780C2814DA0A21B1
:106C400019480078401CFDF772FC04030A2116481D
:106C50000078401CFDF76BFC08022043114949688D
:106C600008431049486008E00E4840681F210902A7
:106C70008843FF3001300B4948600A48C0688021D2
:106C800088430849C86000BF0648C0682021084002
:106C90002028F9D1FF200349486202F007F910BD0E
:106CA00000700040002800408C01002010B5FA213F
:106CB0003120000102F032FFFA21144802F02EFFC9
:106CC000FF21F5313720000102F028FFFF21F531C7
:106CD0003120000102F022FFFA210C48483802F06E
:106CE0001DFFFA210948273002F018FFFA21074852
:106CF00002F014FFFA210548483802F00FFF7D2109
:106D0000C9000248883802F009FF10BD9302000054
:106D1000F0B59BB0494840680002000F0A21484383
:106D2000464949680903090F4018C4B243484068FE
:106D3000C004C00F0A214843404949680905090FAA
:106D400045183E4840680004460F3C4840688006AD
:106D5000800F0A214843394949680907090F471834
:106D60000A213846FDF7E3FB002805D13A4634A155
:106D700002A8FDF723FA04E03A4633A102A8FDF782
:106D80001DFA0A212846FDF7D2FB002805D12A4624
:106D90002BA16846FDF712FA04E02A462AA16846AC
:106DA000FDF70CFA694602A8FDF74AFB0A212046C6
:106DB000FDF7BDFB002805D1224624A16846FDF75A
:106DC000FDF904E0224623A16846FDF7F7F969467C
:106DD00002A8FDF735FB330002F07CF90828050A0C
:106DE0000F14191E23281CA16846FDF7E1FA1DE0C7
:106DF0001AA16846FDF7DCFA18E019A16846FDF70C
:106E0000D7FA13E017A16846FDF7D2FA0EE016A1F3
:106E10006846FDF7CDFA09E014A16846FDF7C8FA07
:106E200004E013A16846FDF7C3FA00BF00BF69463E
:106E300002A8FDF705FB02A81BB0F0BD002800402A
:106E40003025642D0000000025642D0030256420CD
:106E50000000000025642000CFED0000C2F2000019
:106E6000D1F00000D7F20000CFF20000D1E1000025
:106E7000C2F1000070B59CB0304800688002800FFD
:106E80000A2148432D4909680903090F44182B4872
:106E900000680004000F0A214843284909680905D1
:106EA000090F4018C5B2254800680006000F0A21E6
:106EB0004843224909680907090F4018C6B20A2148
:106EC0002046FDF734FB002805D122461CA103A86B
:106ED000FDF774F904E022461BA103A8FDF76EF943
:106EE0000A212846FDF723FB002805D12A4614A1D4
:106EF00001A8FDF763F904E02A4613A101A8FDF7F4
:106F00005DF901A903A8FDF79BFA0A213046FDF7B8
:106F10000EFB002805D132460CA101A8FDF74EF961
:106F200004E032460AA101A8FDF748F901A903A827
:106F3000FDF786FA03A81CB070BD000000280040D1
:106F40003025643A0000000025643A0030256400D2
:106F500025640000214880690121090308431F4975
:106F600088610920C00600683F2189028843092101
:106F7000C9060860084600681521C90208430921AE
:106F8000C9060860084680683F2189020843092134
:106F9000C90688600846006A0003000B08620846BC
:106FA000006A08620D484069012108430B494861A5
:106FB0000B4840680B4908430949486000200860B5
:106FC00008460068CF218900084305490860084643
:106FD00000684021084302490860704700100240E1
:106FE00000300140031000001F48C06901218903DF
:106FF00008431D49C8611D4800683321890688433C
:107000001A490860084600681121C9060843174953
:107010000860084680683321890608431349886060
:107020000846406A12490840104948620846406ACA
:10703000486200200F490860084600680E4908436E
:107040000C490860084640680F2109028843012165
:10705000C9024018074948600846006840210843B3
:107060000449086070470000001002400004004816
:10707000FFFF0F0F0038004004C3000000BF084AA4
:10708000926802231A40002A05D1054A926880239B
:107090001A40002AF3D102020A43014BDA6070471A
:1070A0000038004030B5A5B00024802105A8FDF7C8
:1070B00032FAFD48FEF79CFB0502FB48401CFEF738
:1070C00097FB2818F9490880002022237A221021F2
:1070D00000905A2000F06CFBF5480068000DF5495F
:1070E0000880F34800680003000DF3490880F04869
:1070F00000784001F14909884905C90E401800058A
:10710000000DEF490880EA480068800CED490880CE
:10711000E74800688003800CEB490880E448007869
:10712000C002E64909884905490D40188004800CD1
:10713000E6490880DF4800880005000DDE4909881F
:107140000905090D884209D0DA4800880005000DBC
:10715000DB4909880905090D884204D1D548008812
:10716000DB4908800C24D44800880005000DD44970
:1071700009880905090D884204D1CF480088D449FF
:1071800008800C24CF4800880005000DCE490988EE
:107190000905090D884209D0CA4800880005000D7C
:1071A000CA4909880905090D884204D1C5480088E3
:1071B000C84908800E24C44800880005000DC34952
:1071C00009880905090D884204D1BF480088C149D2
:1071D00008800E240C2C7DD1BD4800888012002828
:1071E00024D1BB4800888005800DBB4909888842AE
:1071F0001CD10020B9490870A0238022642100908E
:1072000000F0D6FAB6481F21C90202910390B54991
:1072100003C91423B44A019100906421002000F0B6
:107220004FFCFDF7D9FFB048FEF788FFA84800885B
:10723000801203287ED10020A8490870A023802254
:107240006421009000F0B4FAA14800788007800F14
:10725000032811D1A2481F21C90202910390A1491C
:1072600003C90823A14A019100906421002000F085
:1072700027FC9E48FEF762FF954800788007800F44
:10728000002811D196481F21C90202910390954907
:1072900003C90823964A019100906421002000F060
:1072A0000FFC9348FEF74AFF89480088F021084008
:1072B00030280ED18A481F21C902029103908949C2
:1072C00003C908238B4A019100907621002000F029
:1072D000F7FB00E07EE07E480088F0210840C028EF
:1072E0000ED17F481F21C902029103907D4903C935
:1072F0000823814A019100907621002000F0E0FBF4
:1073000073480088F0210840F0280ED174481F21EE
:10731000C90202910390734903C90823774A019176
:1073200000907621002000F0CBFB69480088F02116
:10733000084000E013E000280ED169481F21C9026F
:1073400002910390674903C908236D4A0191009097
:107350007621002000F0B4FBFDF73EFF3AE05C48E8
:1073600000888012012835D100205C4908705849F6
:1073700009888905890D08460838C10F0918C9030D
:10738000090C604A118010460088401C4749098852
:1073900088421FDC0020A02380226421009000F09E
:1073A00007FA58480088584908805848FFF724FBD6
:1073B00001205749087057490870FDF70DFF5249E1
:1073C0000988524A8818802205A9FEF714FA05A8F0
:1073D000FEF7B4FE0E2C66D13E480088001300284C
:1073E00024D13C4800880005000D3B4909888842AB
:1073F0001CD1002039490870A0238022642100900C
:1074000000F0D6F936481F21C90202910390354990
:1074100003C91423344A019100906421002000F034
:107420004FFBFDF7D9FE3048FEF788FE294800885B
:107430000013032870D1002028490870A02380225F
:107440006421009000F0B4F9224800880C21084023
:107450000C2811D122481F21C90202910390214911
:1074600003C90823214A019100906421002000F003
:1074700027FB1E48FEF762FE164800880C210840D4
:1074800000284CD116481F21C902029103901549CA
:1074900003C90823164A019100906421002000F0DE
:1074A0000FFB134839E0D1E006000308700100200B
:1074B00050020020480200204A020020540200200E
:1074C0004C02002094010020960100209801002029
:1074D000900100209A010020D6000020BF0100206A
:1074E000FF7F00005801002068FD0008F0FD000843
:1074F00008FE0008E4FD0008FCFD000814FE00087A
:1075000020FE000892010020740100200000020803
:1075100076010020BE0100205DE0FEF70FFE654809
:1075200000880F2189010840C0280ED162481F2120
:10753000C90202910390614903C90823604A01917D
:1075400000907621002000F0BBFA5A4800880F21F5
:10755000890108400321090288420ED156481F21A3
:10756000C90202910390554903C90823554A019164
:1075700000907621002000F0A3FA4E4800880F21E9
:107580008901084088420ED14B481F21C90202914F
:1075900003904A4903C908234B4A01910090762180
:1075A000002000F08DFA434800880F21890108402F
:1075B00000280ED140481F21C902029103903F4983
:1075C00003C90823414A019100907621002000F070
:1075D00077FAFDF701FE374800880013012835D1FE
:1075E00000203B490870334909880905890D084680
:1075F0000838C10F0918C903090C364A1180104612
:107600000088401C3449098888421FDC0020A023E0
:1076100080226421009000F0CBF82E4800882F498A
:1076200008802F48FFF7E8F901202E4908702E49FD
:107630000870FDF7D1FD29490988294A8818802258
:1076400005A9FEF7D8F805A8FEF778FD2748806958
:10765000012109030843254988610846C0690221C0
:1076600008432249C8612248006840084000204978
:10767000086020480068400840001E4908601E4815
:107680000068400840001C49086019480068012152
:107690000843174908601748006801210843154945
:1076A000086015480068012108431349086025B0A7
:1076B00030BD00009A010020FF7F0000580100202B
:1076C000E4FD0008FCFD000814FE000820FE000890
:1076D000BF010020920100207001002074010020F1
:1076E0000000020876010020BE01002000100240C8
:1076F0000040014000440140004801407047000044
:10770000FFB583B00C4615461E4621466943084620
:10771000C917490F09184903090C02910C9840191F
:10772000401E83B23019401E82B230460C9900F0E0
:10773000F5F91E48806A0121090308431B49886244
:107740000020019024E000271CE001990398405C90
:107750000721C91B0841C007C00F002808D00D9998
:10776000081200F0A6F90D99C8B200F0A2F907E0DE
:107770000E99081200F09DF90E99081200F099F97F
:10778000781CC7B2082FE0DB0198401C80B2019042
:10779000029901988842D6DB0448806901210903D7
:1077A00008430249886107B0F0BD000000040048AA
:1077B000FFB583B004460D4616460C9F3812029062
:1077C000F8B20190324629462046069B00F0A6F901
:1077D0001048806A0121090308430E498862204647
:1077E0006843009008E0029800F063F9019800F007
:1077F00060F90098401C00900698704300998842F8
:10780000F1D80448806901210903084301498861CE
:1078100007B0F0BD00040048F8B504462612E7B2F0
:10782000A02380220021084600F078F90D48806AE4
:107830000121090308430B498862002506E0304610
:1078400000F037F9384600F034F96D1C05200003CC
:107850008542F4D3034880690121090308430149A3
:107860008861F8BD0004004810B54C480068032149
:1078700009068843494908600846006889030843A7
:1078800046490860084680680321090608434349C1
:1078900088600920C0060068032109048843092183
:1078A000C906086008460068012109040843092147
:1078B000C9060860084680680321090408430921B5
:1078C000C90688600846806AFF2101310843092102
:1078D000C906886208468069FF21013108430921F1
:1078E000C9068861052001F04FFE0920C006806AA4
:1078F000FF21013108430921C9068862052001F0F2
:1079000043FE0920C0068069FF2101310843092197
:10791000C9068861052001F037FE2048806A0121F0
:10792000090308431D498862012000F0BBF8962036
:1079300001F02AFE112000F0B5F8FF20F53001F02B
:1079400023FE202000F0AEF8362000F0ABF8C8206F
:1079500000F0AFF83A2000F0A5F8052000F0A9F8F3
:10796000132000F09FF80A2001F00EFE292000F0FD
:1079700099F8642001F008FE084880690121090394
:107980000843064988610920C0068069FF2101314A
:1079900008430921C906886110BD000000040048A1
:1079A0000FB4F0B585B014460F98001203900F98ED
:1079B000C0B202901098001201901098C0B20090CE
:1079C00008A8417D0B980818401E83B208A8017DC5
:1079D0000A980818401E82B20B990A9800F09EF887
:1079E0002F48806A0121090308432D498862002538
:1079F00046E0C02C09DB08A8407D21466039484399
:107A0000401940000E990E5A1EE0A82C08D108A873
:107A1000407DA0225043401940000E990E5A13E0B9
:107A2000B82C08D108A8407DA1225043401940003D
:107A30000E990E5A08E008A8407D21462039484397
:107A4000401940000E990E5A002714E03046B84005
:107A50000121C9030840002806D0039800F029F846
:107A6000029800F026F805E0019800F022F800984E
:107A700000F01FF87F1C08A8007DB842E6D86D1CF6
:107A800008A8407DA842B4D80548806901210903AF
:107A900008430349886105B0F0BC08BC04B018472E
:107AA0000004004810B5044621460020FFF7E6FA1E
:107AB00010BD10B5044621460120FFF7DFFA10BDC6
:107AC000FFB585B004460F462546049700261FE003
:107AD00011991098029101900F9800900798825D7B
:107AE00028460E9B0499FFF75BFF08A8007E40190B
:107AF00085B208A8007E8021081AA84206DA254629
:107B000008A8417E0498081880B20490701CC6B280
:107B100008988642DCDB09B0F0BD0000F8B50446E9
:107B20000D4616461F461A48806A0121090308437C
:107B3000174988622A20FFF7B5FF2104080EFFF7D6
:107B4000B8FFE0B2FFF7B5FF3104080EFFF7B1FF51
:107B5000F0B2FFF7AEFF2B20FFF7A4FF2904080EB9
:107B6000FFF7A7FFE8B2FFF7A4FF3904080EFFF7FD
:107B7000A0FFF8B2FFF79DFF2C20FFF793FF04480A
:107B8000806901210903084301498861F8BD0000AB
:107B9000000400481FB5A1480069400840009F4903
:107BA00008619F48C06820210840202831D1FFF794
:107BB000AFF8044621469B48FCF7FAFB9948FCF7CE
:107BC0001DFCC4B20020984902910390974903C953
:107BD0002346944A019100900A210020FFF770FF8C
:107BE000FFF748F9044621468E48FCF7E1FB8D4833
:107BF000FCF704FCC4B200208B49029103908C492D
:107C000003C92346874A0191009014210020FFF701
:107C100057FF8848007800287ED0002085490870EA
:107C200085490988854A881AC117890F0918890565
:107C3000090E834A117010460078642802DD642022
:107C4000114608707E4802787EA17648FCF7B6FAA5
:107C50007B4800783C2812DD7248FCF7CFFBC4B2A9
:107C600000203F21490102910390784903C923462E
:107C70006C4A0191009004215C20FFF721FF7048BD
:107C800000783C2816DC6E480078142812DD654820
:107C9000FCF7B4FBC4B2002063491F390291039082
:107CA0006A4903C923465F4A0191009004215C2080
:107CB000FFF706FF62480078142812DC5948FCF7E9
:107CC0009DFBC4B200201F21C902029103905F49AD
:107CD00003C92346534A0191009004215C20FFF719
:107CE000EFFE554840887D21C900884218DD58487C
:107CF0000078002814D0002056490090502310220C
:107D00000191029008215448FFF7FAFC00205049E5
:107D100008700120514900E01AE00870FDF7A6FA4A
:107D2000454840887D21C900884211DA4B480078D7
:107D300000280DD00020102358220146009050202A
:107D4000FFF736FD012042490870002043490870C2
:107D500043480078002807D0FFF7A4F901204149E3
:107D6000087000203E4908703F480078002853D032
:107D7000314880883D490988884203DD2E48808843
:107D80003A4908802C48808839490988884203DAB2
:107D9000294880883649088034490988344A12883D
:107DA000891A642251430846C917090D0918091395
:107DB000002921DD2D4800882D490988401A6421B9
:107DC00048430446C017000D001902131DA11548B1
:107DD000FCF7F4F91348FCF711FBC4B20020124978
:107DE00002910390124903C923460E4A0191009063
:107DF00078210020FFF764FE1E480078401EC0B2C4
:107E00001C490870002807D1032008700120C00217
:107E100016490880164908801FBD00000020004058
:107E200000280040B0040020FFFF000050010020A7
:107E300058010020A3010020C800002034080000E1
:107E40005802002025336425250000004801002049
:107E500059020020E3E3000057FD00085A02002009
:107E6000BB010020BC010020A2010020AC010020C9
:107E7000AE010020B001002010B51748C069FF21F5
:107E8000013108431449C861132001F031F902217E
:107E9000132001F075F97D21C90010480068FCF736
:107EA0003CFB401E0E498862F920C8620020086031
:107EB00008464069012108430949486108460069AC
:107EC0004008400008610120C860084600680121A0
:107ED00008430349086010BD001002406C020020F6
:107EE000002000400B480069400840000949086133
:107EF0000948007800280CD108480078002808D1EB
:107F00000120054908700648806804210843044997
:107F100088607047004001402A020020A401002030
:107F20000024014010B51748806901210904084365
:107F300014498861142001F0DBF80121142001F0BC
:107F40001FF9002010498862104911480068FCF7A9
:107F5000E4FA401E0C49C8620020086008464069E7
:107F6000012108430849486108460069400840006B
:107F700008610120C86008460068012108430249E1
:107F8000086010BD001002400040014029040000BC
:107F90006C0200200B480069400840000949086154
:107FA0000948007800280CD108480078002808D13A
:107FB00002200549087006488068042108430449E6
:107FC00088607047004401402A020020A40100207C
:107FD0000024014010B51748806901214904084375
:107FE00014498861152001F083F80121152001F062
:107FF000C7F8002010498862104911480068FCF752
:108000008CFA401E0C49C86200200860084640698E
:1080100001210843084948610846006940084000BA
:1080200008610120C8600846006801210843024930
:10803000086010BD00100240004401402F04000001
:108040006C0200201FB5C848006940084000C649BE
:108050000861C6480078002815D0C5480078002877
:1080600003D01420C349087023E0C2480078401EA2
:10807000C0B2C049087000281BD1BC490870142048
:10808000BC49087015E0BA480078002803D11420D4
:10809000B84908700DE0B7480078401EC0B2B54935
:1080A0000870002805D10120B04908701420B1499A
:1080B0000870B1480078002815D0B0480078002832
:1080C00003D01420AE49087023E0AD480078401E6C
:1080D000C0B2AB49087000281BD1A7490870142012
:1080E000A749087015E0A5480078002803D114209E
:1080F000A34908700DE0A2480078401EC0B2A04914
:108100000870002805D101209B49087014209C4963
:1081100008709C48007896280ADA9A480078401C33
:10812000C0B298490870962802D10020964908707C
:108130009648007896280ADA94480078401CC0B225
:1081400092490870962802D1012091490870874809
:1081500000789049097888421CD0844800788D497D
:108160000870884800788C4908700020854908709C
:1081700089480078462802DAFF208349087086483B
:108180000078462806DD84480078962802DA012027
:108190007D490870784800788049097888421CD069
:1081A000754800787D490870784800787C490870E7
:1081B0000020764908707A480078502802DAFF20BB
:1081C0007349087076480078502806DD74480078B6
:1081D000962802DA00206E4908706B480078FF2864
:1081E00008D16B480078FF2812D0694800786D49A3
:1081F00008700DE06448007865490978884203D02A
:1082000063480078FF2803D15F480078654908700B
:1082100064480078002805D063480078401C624913
:10822000087004E060480078401E5F4908705E48AE
:108230000078802802DD01205C4908705A480078E7
:10824000802802DA002059490870802056490870B9
:108250005648007856490978884208D05348007833
:1082600053490870FF200130524908607AE05148B4
:108270000068401E4F490860002873D10120400269
:1082800008604A4800784C4908704C48007800283B
:1082900004D002282AD0032863D13FE04848006870
:1082A000400045490978401845490860084600786B
:1082B000AA2802D143484449088041480068800305
:1082C000800B4249884210D102203C4908700020AE
:1082D0003F49029103903F4903C901233EA2019106
:1082E000009010216420FFF7EBFB3AE03B48006868
:1082F000400031490978401838490860384800780A
:10830000401C3749087008460078202805D1032012
:108310002A49087000203249087022E0314800687C
:1083200040002549097840182E4908602C480078FB
:10833000401C2B490870084600780B2810D10020FB
:108340001E4908702649087001202749087000203E
:108350002649086026490860264908802649088081
:1083600000BF00BF1FBD00000048014022020020E6
:108370001C02002068020020230200201D020020B1
:1083800069020020180200205E0200201A0200206C
:108390005F0200205C020020190200205D02002024
:1083A0001B02002061020020620200202002002047
:1083B0006002002064020020A00100204E02002084
:1083C00044020020409C000046010020A9AA0200AF
:1083D000FFFF000058010020210000005002002093
:1083E0004F02002054020020BB010020F4010020B5
:1083F000140200202C0200202E02002010B5184884
:10840000806901218904084315498861162000F01C
:108410006FFE0121162000F0B3FE00201149886292
:108420007D21C90010480068FCF777F8401E0D490F
:10843000C8620020086008464069012108430949D4
:108440004861084600694008400008610120C86092
:1084500008460068012108430249086010BD000079
:1084600000100240004801406C0200202148806951
:108470000121C90208431F49886100201E49886202
:108480001E48C86200200860084640690121084370
:10849000194948610846C069682108431649C861FE
:1084A0001648C8630920C006006801214905084331
:1084B0000921C90608600846406A012149020843AB
:1084C0000921C90648620C48006AFF2101310843AE
:1084D000094908620848403040680121C90308433F
:1084E00005494031486004480068012108430249B9
:1084F0000860704700100240002C01408813000003
:108500003648006940084000344908613448006832
:10851000002804D032480068401E314908603148C4
:108520000068002804D02F480068401E2D490860CC
:108530002D480068002805D02B480068401E2A49B5
:10854000086005E0294800680121084327490860C0
:1085500027480088002804D025480088401E244968
:10856000088024480068002804D022480068401E83
:108570002049086020480088401E80B21E490880BB
:1085800000282AD11D48088001201D4908701D4877
:108590000078401CC007C00F1A49087008460078D0
:1085A000002802D0012814D109E00420164988626D
:1085B00008468068042108431349886009E00820C0
:1085C0001149886208468068042108430E49886082
:1085D00000BF00BF01200D49087070470004004033
:1085E000B401002040010020A80100200048014003
:1085F000180100201001002046010020409C0000CE
:10860000A4010020A501002000240140A3010020B6
:1086100010B51C48C069022108431A49C8611020DE
:1086200000F066FD0121102000F0AAFD002016498F
:1086300088627D21C90015480068FBF76EFF401E67
:108640001149C862002008600846406901210843BA
:108650000D49486108460069400840000861012052
:10866000C8600846006801210843074908600848B7
:1086700000783C2148437D21C900484305490860F2
:1086800010BD000000100240000400406C020020F9
:1086900021010020B401002030B585B0FE480069FA
:1086A00040084000FC490861FC49096808790A2132
:1086B000FBF73DFFFA490870FA480078002804D01B
:1086C000F9480068FDF77AFE7FE3F8480069012168
:1086D0004902084000280FD1F548007800280BD146
:1086E000F4480078002807D1FCF74CFDF2480078E8
:1086F000002801D0FDF78AFA0920C006006901218F
:10870000C9020840002828D1E9480078002824D16F
:10871000E8480078002807D1FCF734FDE6480078E7
:10872000002801D0FDF70EFCE44801780078401ED7
:10873000E24A1070002913D10020DE490870E04998
:1087400002910390DF4903C90423DFA20191009045
:1087500076211420FFF7B4F902E00A20D749087007
:10876000D2480069FF2101310840002828D1D048B3
:1087700000780028FAD1CF4800780028F6D1FCF71D
:1087800001FDD34800780001C44909684018806899
:10879000002816D0CE4800780001C049096840186A
:1087A0008068BE49086008460068002808D008466E
:1087B0000068FDF73DFB0021B8480068FDF776FB37
:1087C00052E1B6480068C349884260D1C048007889
:1087D000030000F07FFC065B0417222D485B1F207E
:1087E000C0021F2102910390B64903C90423B6A217
:1087F0000191009076211420FFF762F90120AD4924
:10880000087043E0B448A849086008460068FDF7CE
:1088100033FD0120A349087038E0B048A249086040
:1088200008460068FDF728FD01209E4908702DE0EC
:108830000020A1490870A023802264210090FEF747
:10884000B7FF0020A649029103909E4903C90B235C
:10885000A4A20191009078210020FFF731F90120B6
:10886000A349087012E0002093490870A0238022D9
:1088700064210090FEF79CFF00209E4908809E48DE
:108880009E49088001209E49087000BFECE08348A3
:1088900000689C4988420CD18D480078002802D09D
:1088A000012805D103E08D48FEF7A6F800E000BFDF
:1088B000DAE07A4800689449884227D184480078F1
:1088C000002811D17948806A0121090308437749BA
:1088D00088622120FFF7E6F87448806901210903C6
:1088E000084372498861BFE07048806A012109032A
:1088F00008436E4988622020FFF7D4F86B488069EE
:1089000001210903084369498861ADE063480068B3
:108910007E49884225D16E480078002811D17C48D4
:10892000C06B7C49884207D27948C06B7D21C90061
:1089300040187749C86397E07D20C0007449C86338
:1089400092E07348C06B7D21C900884205D9704808
:10895000C06B401A6E49C86386E06E486C49C863B4
:1089600082E04E4800686C49884218D15848007827
:10897000030000F0AFFB0504070A0D101300FDF71C
:1089800085F80BE0FEF792F808E0FCF761FE05E0E1
:10899000FEF702F902E000F017FB00BF64E03F4879
:1089A00000685E49884224D149480078002802D0F6
:1089B00001281DD112E001205949087000203F21F3
:1089C000490102910390574903C9032356A201911B
:1089D000009000210846FFF773F809E00020504995
:1089E00008700923162201460090FEF7E1FE00BF41
:1089F0003AE02A4800684D49884235D13448007829
:108A0000002830D13248007800282BD1484800781F
:108A1000401CC0B2464908700A2801DD01200870D8
:108A20004348027843A104A8FBF7C8FB04A8FBF75E
:108A3000E5FCC4B20020424902910390214903C9D8
:108A4000234604AA0191009076211420FFF738F8FC
:108A5000374800783C2148437D21C90048433949C3
:108A6000086000BF00BF00BF0920C00600690121E7
:108A700009030840002869D10D4800780028FAD180
:108A80000C4800780028F6D1FCF77CFB2E480178D2
:108A90000078401E2C4A5AE0001000409C01002043
:108AA000BA010020BE010020C801002000040048D7
:108AB000C4010020C5010020BF010020C201002028
:108AC000FFFF000058010020C1CBCECA000000000B
:108AD00072010020ACFA0008000803080000020838
:108AE0001FF80000CEE6E8E4E0EDE8E52E2E2E00CB
:108AF000A1010020AC010020FF0F0000AE0100200A
:108B0000A2010020CCF900081CFA00083CFA000879
:108B1000002C0140881300007CF90008ECF90008E3
:108B2000C601002050010020C0C1EB000CFA000873
:108B30002101002025326420ECE8ED2E0000000029
:108B4000FF7F0000B4010020C0010020ADE01070E4
:108B5000002910D172B60020FEF75EFE01219C486C
:108B6000FCF76EFE0920C006806A0121C903084394
:108B70000921C9068862974800780001964909686A
:108B80004018C068002814D092480078000192492B
:108B900009684018C0689049086008460068FDF7F9
:108BA00047F900218C480068FDF780F900208B49C7
:108BB0000870894800688A49884218D18548007839
:108BC000042803D083480078052810D18248006823
:108BD000FDF72EF9002180480068FDF767F90120B4
:108BE00080490870002080490870804908708048DA
:108BF0000078002811D001207A4908707D4800686B
:108C0000400840007B49086073480068FDF710F990
:108C1000002171480068FDF749F96F4800687649FE
:108C2000884245D1002075490870A0238022642124
:108C30000090FEF7BDFD002431E071490978714ACA
:108C40001278891A081970490988FBF770FCC80165
:108C50006E49451809226E492846FCF7CCFD694843
:108C60000078A04201D0002000E06A4865490978F8
:108C7000A14201D0674900E00021029103906649BA
:108C800003C90191009020461222504301466431ED
:108C900009235F4A1420FEF713FF601CC4B2032CA3
:108CA000CBDB01205D49087002E00A205C490870B6
:108CB0000920C00600690121C9020840002805D129
:108CC0005848006989100840002845D00920C0068E
:108CD00000690121C9020840002806D10920C00608
:108CE000006949000840002836D00920C006006904
:108CF0000121C9020840002805D14A480069C9106D
:108D00000840002828D0474800690121490208404E
:108D1000002806D10920C0060069C90008400028C3
:108D20001AD040480069012149020840002805D1B5
:108D30003C4800694910084000280DD00920C006B1
:108D40000069012109030840002838D1354800692D
:108D500009110840002832D10120334908703348F6
:108D600001780078401E314A107000292DD10A2068
:108D7000114608702E48007800280AD000202C499F
:108D8000087022237A22102100905A20FEF710FD4D
:108D90001BE001202649087026481F21C9020291C4
:108DA00003901D4903C9032323A2019100901021C0
:108DB0005A20FEF785FE00202049086005E00A20C1
:108DC0001A49087000201849087005B030BD00002D
:108DD00014000308720100209C010020770100208C
:108DE000ACFA0008BF010020A1010020A201002070
:108DF000BC01002000480140CCF9000879010020A6
:108E00007401002078010020700100200000020899
:108E100030040020FFFF000058010020BE010020A8
:108E2000C001002000040048C4010020C10100204E
:108E300020010020FF7F0000534F53001C01002041
:108E400010B51748C069102108431549C8611120A1
:108E500000F04EF90121112000F092F97D21C900A6
:108E600010480068FBF759FB401E0F498862C72075
:108E7000C8620020086008464069012108430A4989
:108E80004861084600694008400008610120C86048
:108E900008460068012108430349086010BD00002E
:108EA000001002406C02002000100040F0B589B0B4
:108EB00040484068C004C00F0A2148433D49496802
:108EC0000905090F45183B4840688006800F0A21B4
:108ED0004843384949680907090F40180790354841
:108EE00040680002000F0A214843324949680903DB
:108EF000090F4018C4B2032D05DA28460A30C5B25E
:108F0000601EC4B201E0A81EC5B22846FBF7AFFD43
:108F1000294A2A4B01910090FBF7ACFD284A294BC6
:108F200003910290FBF733FD05910490FBF752FD8E
:108F3000C1B2079808182646E117890F89198910C8
:108F40004018001923380690002801DB069901E03B
:108F50000699494208460721FBF7E9FACFB2CA2031
:108F600014494862532048620846C068802108437B
:108F70001049C86000BF0F48C06840210840402821
:108F8000F9D10C484068072149038843002F01D0DC
:108F9000394600E00721490308430649486008466E
:108FA000C068802188430349C860FF20486209B037
:108FB000F0BD000000280040CDCCCCCCCCCC04408F
:108FC0009A9999999999C93F10B53F480068FF212E
:108FD000013108433C4908603C4840680002000FEA
:108FE0000A214843394949680903090F401838499B
:108FF0000870CA2035494862532048620846C06854
:10900000802108433149C86000BF3048C068402112
:1090100008404028F9D12D484068FF2109048843C1
:109020002A4948600846C068802188432749C860AB
:1090300000BF2648C068202108402028F9D1FF2021
:1090400022494862CA204862532048620846C068E4
:10905000802108431D49C86000BF1C48C0684021EA
:1090600008404028F9D11A480078632814DA0A2108
:1090700017480078401CFBF75AFA04050A211448E7
:109080000078401CFBF753FA080420430F49496855
:1090900008430E49486003E00C4840680B494860AB
:1090A0000A48C068802188430849C86000BF074853
:1090B000C068202108402028F9D1FF2003494862D8
:1090C000FFF7F4FE10BD00000070004000280040D3
:1090D0008C01002030B47446641E2578641CAB42B9
:1090E00004D3635D5B00E31830BC18471D46F8E706
:1090F000002805DBC206D20E01219140014A116011
:109100007047000000E100E010B5002819DB1A4AA2
:1091100003231B02D21883089B00D2588307DC0E5E
:10912000FF23A3409A438B071B0E8407E40EA34042
:109130001A43114B032424021B198408A4001A515A
:1091400018E00E4A03071B0F083B9B089B00D258F0
:109150008307DC0EFF23A3409A438B071B0E840773
:10916000E40EA3401A43054B0407240F083CA4084F
:10917000A4001A5110BD000000E100E01CED00E069
:1091800010B5002819DB1A4A03231B02D2188308E2
:109190009B00D2588307DC0EFF23A3409A438B0722
:1091A0001B0E8407E40EA3401A43114B0324240230
:1091B0001B198408A4001A5118E00E4A03071B0F5C
:1091C000083B9B089B00D2588307DC0EFF23A3407B
:1091D0009A438B071B0E8407E40EA3401A43054BEA
:1091E0000407240F083CA408A4001A5110BD000075
:1091F00000E100E01CED00E030380A2801D2012037
:10920000704700207047000000B5C8200949086079
:10921000462000F0F9FF04E006480068002800D16D
:1092200000BD002000F0F0FF802108400028F3D1AD
:109230000120F5E71001002000B5C82009490860A9
:10924000402000F0E1FF04E006480068002800D15B
:1092500000BD002000F0D8FF802108400028F3D096
:109260000120F5E710010020F8B5314C0920C006B7
:109270000068C321890088430921C906086008469F
:109280000068FF21053108430921C9060860084626
:109290008068C321890008430921C90688600846FF
:1092A000806912210843890688610846806A022184
:1092B00008430921C9068862642000F065F9092085
:1092C000C0068069022108430921C9068861FFF7A9
:1092D0009BFF0090FFF7B0FF0746002F02D00098D9
:1092E000002803D1002013490860F8BD012012496D
:1092F000087007E02578641C2678641C31462846EF
:1093000000F09AFF20780028F4D10021084600F0F0
:1093100093FF472000F078FF482000F075FF94216C
:10932000312000F089FF422000F06EFF0120DCE7D1
:10933000F1000020003001403C01002000B537481A
:109340004079364989790843002801D0002000BDC2
:109350003248C0790300FFF7BDFE09060D141B2239
:109360002930373E45002D480078092801D00020DB
:10937000EDE739E029480078092801D00020E6E728
:1093800032E026480078092801D00020DFE72BE0F2
:10939000224800784B2801D00020D8E724E01F485D
:1093A00000784B2801D00020D1E71DE01B48007851
:1093B000092801D00020CAE716E0184800780B28D9
:1093C00001D00020C3E70FE014480078092801D03D
:1093D0000020BCE708E011480078092801D00020EF
:1093E000B5E701E00020B2E700BF0C48407828282C
:1093F00012D10A48807841280ED10848C07808491F
:1094000009880912884207D104480079044909787B
:10941000884201D101209AE7002098E7B00300209C
:10942000D600002010B50446A000241820460B30BA
:10943000C4B221462E2000F0FFFE642008490860D7
:1094400004E007480068002800D110BD332000F078
:10945000D5FC042108400028F3D00120F5E70000E6
:10946000140100201FB51548407A1449097A0902F1
:10947000401884B2452011490870282048704120C6
:1094800088703F22491D0E48FCF7B5F900F08CF8B2
:109490000020A023802264210090FEF789F900209B
:1094A000084902910390084903C9162307A20191B4
:1094B00000906E210020FEF703FB1FBDB0030020CB
:1094C00000000308E7E7000058010020CFEEEBF3AF
:1094D000F7E5EDE8E52020EDE0F1F2F0EEE5EA2E2B
:1094E0002E2E00001FB500243F221C491C48FAF70D
:1094F000B3FF00200AE0194A0A3A01460A31515CDA
:109500000C19FF2C00DDFF3C411CC8B24028F2DBE7
:109510000C2012490A390870282048708C7200F01B
:1095200043F83F220E490F48FCF7A8F90020A0237A
:10953000802264210090FEF73BF900200A49029145
:1095400003900A4903C9142309A2019100906E21D6
:109550000020FEF7B5FAFBF789FE1FBDBA03002015
:10956000F002002000000308BFBF000058010020E7
:10957000CDE0F1F2F0EEE9EAE82020E7E0EFE8F1F3
:10958000E0EDFB210000000001B5064900984843CA
:10959000009002E00098401E009000980028F9D149
:1095A00008BD0000B80B000000B500F0BBFD00F0E6
:1095B000EDFD00BDF0B585B05D48007A5C49497AA3
:1095C0000843002816D1A023802264210090FEF7D2
:1095D000EFF80020574902910390574903C90F2320
:1095E00056A20191009064210020FEF769FA002044
:1095F0005649088000244E48007A00024C49497AB6
:10960000401885B2002009E0494A01460A31515C00
:109610000C19FF2C00DDFF3C411CC8B24028F3DBD5
:109620004B48006885421DD04A480078002803D185
:1096300048484078002807D045490968464A8818B4
:1096400040224449FCF76EF9414805603F480088D4
:10965000401C3E490880402235490A313D48FAF70E
:10966000FBFE05E0402232490A313A48FAF7F4FE9F
:1096700038480078002850D13648407800284CD12E
:1096800032490888C10F09184910304A1180104624
:109690000088001231490870104600784870022294
:1096A0002F48FCF7EBF800202E490860002612E056
:1096B000F101294A881880222649FCF79CF82548A0
:1096C000FAF79CFE074639462248FBF71DFF25495D
:1096D0000860701C86B21D4800888642E8DB0422C0
:1096E00020491F48801CFCF7C9F800201D4908606C
:1096F000A023802264210090FEF75AF800203F2129
:109700004901029103900C4903C9142316A2019147
:10971000009064210020FEF7D3F90C200449087062
:10972000282048708C72FFF73FFF05B0F0BD0000A5
:10973000B0030020EAEA000058010020C8E4B8F2B3
:1097400020EFF0E8B8EC20CFCBC02100D200002001
:1097500024010020F002002000000208D4000020B4
:1097600006000308E8000020CFCBC020F3F1EFE5AE
:10977000F8EDEE20E7E0EFE8F1E0ED210000000079
:1097800038B501200090012269464848FCF776F878
:10979000002047494870FFF707FF72B6002045498F
:1097A00008614861886100BF09E00022D243424954
:1097B0008300CA5041498300CA50411CC8B20328E3
:1097C000F3DB3F480068812108433D49086000BF42
:1097D0003B480068022108400028F9D0384840681A
:1097E000384908403649486000BF354840680C2178
:1097F00008400028F9D134483449086030480068EE
:10980000334908402E490860084600680121890450
:1098100088432B49086000BF294800680121490698
:1098200008400028F8D126494860C862086388606B
:109830000846406A01210906084321494862002080
:10984000C043086100200861401EC8600020C86055
:10985000401E886200208862C022C9038800FAF78F
:1098600075FC17488069012108431549886100206B
:109870001849086000BF00BF00BFBFF34F8F00BF93
:1098800000BF00BF00BF00BF00BFBFF36F8F00BFAE
:1098900000BF00BF62B60120C006446825460146ED
:1098A000086880F3088800BFA84738BD0C0003088B
:1098B000B003002000E000E080E100E080E200E092
:1098C000001002400CF8FFF000127A006C02002039
:1098D000FFFFF6FE000001400EB5FBF763FEFCF74C
:1098E00089F8FBF7EBFBFEF7C1FDFDF733FBFDF756
:1098F0007BFBFDF7B9FFFCF73FF9FEF789FEFEF7AA
:1099000011FBFEF767FBFEF779FDFBF7C5FDFFF7DF
:1099100097FAFFF7A9FCFBF7E1FD6948FBF768FF41
:1099200004466748401CFBF763FF000220186549A6
:1099300008800020FDF770FF0020634932220423D5
:10994000009201910290232278216048FDF7D8FE11
:1099500000205D4900905A230F220191029020219E
:109960005B48FDF7CDFE5B48FCF762FA00215948E1
:10997000FCF79CFAFEF780FA57480078002807D0D9
:109980000220FFF74FFD00F04FFB0320FFF74AFDD9
:1099900095E052480078002813D0514800880028EC
:1099A00003D1FFF73FFD00F0C5FA4E490868411E9C
:1099B0004C4A1160002804D14B4811460860FBF75F
:1099C000A1FC4A480078002817D0454800880028A4
:1099D00007D10220FFF726FD00F026FB0320FFF74A
:1099E00021FD3D480078002807D041480069C007A4
:1099F000C00F002801D000F051F93E48006800284F
:109A00001CD13D480078002818D03C480078002838
:109A100002D001203A49087000203A49C86336490B
:109A200008703948806901210903884336498861F3
:109A30000846C069022188433349C8610920C0062D
:109A400000690121C9020840002812D00920C0067F
:109A500000694900084000280BD025480069091119
:109A60000840002805D02248006949000840002825
:109A700022D12148007800281ED1214800780028F2
:109A80001AD1224800783C2148437D21C90048432F
:109A9000184908600120184908701D481949C86311
:109AA0001948806989140843174988610846C069C4
:109AB000022108431449C86116481749086068E73D
:109AC00000000308D6000020FFFF000078A2000875
:109AD00085A40008ACFA00083C0100202001002009
