:020000040800F2
:1000000078070020AD010008B5010008110B0008B9
:1000100000000000000000000000000000000000E0
:10002000000000000000000000000000B90100080E
:100030000000000000000000BB010008BD01000836
:10004000BF01000800000000BF010008BF01000858
:10005000BF010008BF010008BF010008BF01000880
:1000600000000000BF010008BF010008BF01000838
:10007000BF010008BF010008BF0100080000000028
:10008000C5100008BF01000800000000BF01000803
:10009000BF010008BF010008BF010008BF01000840
:1000A000BF010008BF010008BF010008BF01000830
:1000B000BF01000800F002F800F04CF812A030C8B0
:1000C000083824182D18AC4201D100F043F80FCCA9
:1000D000A246AB460CA730CF2D1B083F3F197C42F0
:1000E0007F1E54442D090426F441641EAC4201D302
:1000F00000F030F80126334200D0FB1A3343984712
:1001000054465D46DFE700003C3400005C340000EC
:10011000103A02D378C878C1FAD8520701D330C850
:1001200030C101D504680C607047000070470000C2
:100130000023002400250026103A01D378C1FBD803
:10014000520700D330C100D50B6070471FB51FBDEB
:1001500010B510BD00F0A9F91146FFF7F7FF01F047
:10016000B5F900F0C1F903B4FFF7F2FF03BC00F0EA
:10017000C7F9000070B505460C46164602E00FCCE4
:100180000FC5103E102EFAD2082E02D303CC03C5A1
:10019000083E042E07D301CC01C5361F03E02178A9
:1001A0002970641C6D1C761EF9D270BD074880470B
:1001B00007480047FEE7FEE7FEE7FEE7FEE7FEE74B
:1001C00004480549054A064B70470000650C0008C5
:1001D000B50000087801002078070020780300208F
:1001E00078030020034670B502460B439B070FD1EE
:1001F0000E4CE60100E008C208C91D1B9D433542B4
:10020000F9D0D9B21170521C00290DD01B0AF8E7A1
:100210000B78491C1370521C002B05D00B78491C1D
:100220001370521C002BF3D170BD000001010101BD
:1002300030B5441C03E00178401C00290DD0810733
:10024000F9D10B4BDD0104C8D11A91432940FAD0F2
:10025000001B0A0603D0C01E30BD001B30BD0A04BF
:1002600001D0801E30BD0902FCD0401E30BD000010
:1002700001010101F8B5042A2CD3830712D00B78B1
:10028000491C0370401C521E83070BD00B78491C7D
:100290000370401C521E830704D00B78491C037066
:1002A000401C521E8B079B0F05D0C91ADF0020236C
:1002B000DE1B08C90AE0FFF75DFFF8BD1D4608C94F
:1002C000FD401C46B4402C4310C0121F042AF5D236
:1002D000F308C91A521EF0D40B78491C0370401C55
:1002E000521EEAD40B78491C0370401C012AE4D446
:1002F00009780170F8BD01E004C0091F0429FBD290
:100300008B0701D50280801CC90700D0027070479E
:1003100000290BD0C30702D00270401C491E0229DD
:1003200004D3830702D50280801C891EE3E70022E4
:10033000EEE70022DFE70000002203098B422CD306
:10034000030A8B4211D300239C464EE003460B4325
:100350003CD4002243088B4231D303098B421CD387
:10036000030A8B4201D394463FE0C3098B4201D379
:10037000CB01C01A524183098B4201D38B01C01AB1
:10038000524143098B4201D34B01C01A5241030928
:100390008B4201D30B01C01A5241C3088B4201D3D7
:1003A000CB00C01A524183088B4201D38B00C01A84
:1003B000524143088B4201D34B00C01A5241411AAB
:1003C00000D201465241104670475DE0CA0F00D08E
:1003D0004942031000D3404253409C460022030987
:1003E0008B422DD3030A8B4212D38901FC2212BA0D
:1003F000030A8B420CD3890192118B4208D38901E5
:1004000092118B4204D389013AD0921100E08909FC
:10041000C3098B4201D3CB01C01A524183098B42DD
:1004200001D38B01C01A524143098B4201D34B01C6
:10043000C01A524103098B4201D30B01C01A524129
:10044000C3088B4201D3CB00C01A524183088B42B0
:1004500001D38B00C01A5241D9D243088B4201D339
:100460004B00C01A5241411A00D201465241104677
:1004700063465B1001D34042002B00D549427047D0
:1004800063465B1000D3404201B50549002802DCF9
:10049000491C084000E00846C046C04602BD00BFF7
:1004A000FFFFFF7F704770477047754600F024F8E4
:1004B000AE46050069465346C008C000854618B0E0
:1004C00020B5FFF77DFE60BCB64600260027C0C5FC
:1004D000C0C5C0C5C0C5C0C5C0C5C0C5C0C5403DFC
:1004E000490849008D46704710B50446C046C046CD
:1004F0002046FFF738FE10BD00487047400000203E
:1005000001491820ABBEFEE726000200704700003C
:100510002249002008600868012210430860204931
:10052000832008600868120410430860FFE71C4835
:1005300000688003002801D4FFE7F8E7194900208C
:10054000086008680522120410430860144908680E
:100550000122120610430860FFE71148006880017D
:10056000002801D4FFE7F8E70E490868022210438B
:100570000860FFE70B48006808210840082801D000
:10058000FFE7F7E7084908680122104308600749B8
:1005900008681207104308600020704700200240DE
:1005A0000010024004100240181002401C100240CB
:1005B000C6490868802210430860704780B582B041
:1005C000019000F051F8FFE7BB480068C007002821
:1005D00001D0FFE7F8E7BD49086802221043086030
:1005E0000198104A10600868402210430860FFE735
:1005F000B1480068C007002801D0FFE7F8E7AE481F
:1006000000688006002804D5FFE7AB492020086079
:10061000FFE7AE490868022290430860FFF7C8FF71
:1006200002B080BD1420024084B00390029101A862
:100630000270694600200870FFE76846007801A94B
:10064000097888420DDAFFE703986A461178405C22
:10065000029912788854FFE70098401C6946087098
:10066000EBE704B070470000FFE793480068C0075D
:10067000002801D0FFE7F8E794480068000600284A
:1006800006D5FFE703490448086004480860FFE70F
:100690007047C0460420024023016745AB89EFCD77
:1006A00080B586B00590049103A802700598029069
:1006B00002A800884005002804D1FFE70298FFF750
:1006C0007DFFFFE7FFF7D0FF804908680122104354
:1006D000086003A80078C007002831D1FFE701A90E
:1006E00000200870FFE701A8007803A90978884274
:1006F00025DAFFE7049801A90A788118805C497817
:100700000902401802990880FFE76B480068C0079B
:10071000002801D0FFE7F8E7674800688006002856
:1007200004D5FFE7644920200860FFE70298801C99
:100730000290FFE70198801C01A90870D3E73CE014
:10074000694600200870FFE76846007803A9097829
:10075000491E884225DAFFE7049869460A7881181D
:10076000805C49780902401802990880FFE75248E6
:100770000068C007002801D0FFE7F8E74E4800688E
:100780008006002804D5FFE74B4920200860FFE7DA
:100790000298801C0290FFE70098801C6946087050
:1007A000D2E7049903A800784018401E0078FF2182
:1007B0000902084302990880FFE7444908680122BA
:1007C00090430860FFF7F4FE06B080BD80B5CAB064
:1007D0004990489147A8027007A80190FE21029114
:1007E000FFF7A5FD0199029A499806AB1870499840
:1007F000304B184005900598FFF716FF04A900201C
:100800000870FFE704A8007847A9097888420FDA42
:10081000FFE7489804A90A78805C06A909788A1835
:1008200007A98854FFE70498401C04A90870E9E769
:100830000598FFF7C3FEFFF717FF24490868012258
:100840001043086003A900200870FFE703A80078A0
:10085000FD2825DCFFE703A8027807A88118805C43
:1008600049780902401805990880FFE71248006896
:10087000C007002801D0FFE7F8E70F4800688006AE
:10088000002804D5FFE70C4920200860FFE7059801
:10089000801C0590FFE70398801C03A90870D5E72A
:1008A0000A490868012290430860FFF781FE4AB0B8
:1008B00080BDC04600F8FFFF0C20024003490868D5
:1008C0000122D207104308607047C0461020024042
:1008D000F0B584B023204004B24908600920C60660
:1008E0000522D1063160264B0021009119600321B9
:1008F0008B06A94C23608006224D286030680123B6
:1009000002939C07204330601F4F3C68D803044388
:1009100000983C601C050194BE4B1C601B4C206081
:10092000BD4C20601A4C03942060186888431860FE
:100930000F242103174801600098174908601749E0
:1009400008601749086001993068084302993060CF
:10095000386889020843039938603068A705B843AE
:100960003060286896053043286018682404A04346
:100970001860086812041043086004B0F0BDC04657
:10098000040000480C000048180000480404004817
:100990000C040048001400480414004808140048DF
:1009A0000C14004810B584B0EFF3108072B60390B9
:1009B000424900200860424908604249086002A993
:1009C0000870FFE702A80078022811DCFFE702A9FF
:1009D000087882000020C0434B4BD0500978890032
:1009E0004A4A8850FFE70298401C02A90870E9E7CC
:1009F00035490868812210430860FFE732480068E3
:100A00008007002801D4FFE7F8E730490868304A3A
:100A100010400860FFE72D4800680007800F00289D
:100A200001D0FFE7F7E72B492B4808602649086803
:100A30002A4A104008600868012292049043086026
:100A4000FFE7214800688001002801D5FFE7F8E7AB
:100A50001E480021016022480160224801602248AE
:100A60000160224B1A6801200090040622431A609C
:100A7000CB431F4A136011601E4A136011601E4A67
:100A80001360116040071D490191C022FFF7F2FB7E
:100A9000009B01983F4A116819431160184A0321CD
:100AA0001160BFF34F8FBFF36F8F62B600681549B7
:100AB000096880F30888084704B010BD10E000E022
:100AC00014E000E018E000E00010024004100240D2
:100AD0000CF8FFF01000002000127A00FFFFF6FE75
:100AE0002C10024030100240081002402410024036
:100AF000101002400C100240281002400050000864
:100B0000000001400450000880E100E080E200E0C5
:100B100081B0694601200870FFE768460078002828
:100B200001D0FFE7F9E701B07047000010B519499F
:100B3000086801221303184308600920C1060868E9
:100B40003F239B029843086008681524E402204371
:100B500008609E4908681843086010490868104BEF
:100B600018400860086808600E490868104308606B
:100B70000D4908680D4A104308600D4900200860BF
:100B80000868CF2292001043086008684022104392
:100B9000086010BD181002400800004820000048FE
:100BA000FFFF0F001410024004300140031000004A
:100BB0000030014010B51649086801239A0310431C
:100BC00008608049086833229206904308600868EC
:100BD0001124E406204308607B490868104308603C
:100BE0000E49086808600E490020086008680D4A30
:100BF000104308600C4A10680F242402A043DB0253
:100C0000C0181060086840221043086010BDC0463C
:100C10001C10024000040048080400482404004856
:100C20000038004004C300000438004082B00A4687
:100C3000014601A8017069460A700078000209782F
:100C4000401806490860FFE705480068800700284B
:100C500001D4FFE7F8E702B07047C0460C38004007
:100C6000083800407047000080B586B0014605A8EE
:100C70000180407804A90870059803A90870002134
:100C800001918022A023084600F0D2F90198AD4AD4
:100C9000116801231B03194311600290FFE70298BA
:100CA000000B04280DD8FFE704A8007800F059F9DC
:100CB00003A8007800F055F9FFE70298401C029065
:100CC000EDE7A1490868012212031043086006B04D
:100CD00080BDC046B0B586B03A49086803231C06FB
:100CE000A0430860086801220292150628430860A4
:100CF00035490868204308600920C10608681B04BC
:100D00009843086008681404204308602F49086865
:100D1000184308602E49019108681202049210439A
:100D200008602C490591086810430860052003906D
:100D300000F088FB019A0398049B11681943116025
:100D400000F080FB0398049B059A11681943116019
:100D500000F078FB0298D94A11680403214311601E
:100D600000F0F4F8962000F06DFB112000F0EEF892
:100D70007D20800000F066FB202000F0E7F83620A0
:100D800000F0E4F8C82000F0ECF83A2000F0DEF8BB
:100D9000039800F0E6F8132000F0D8F80A2000F0DD
:100DA00051FB292000F0D2F8642000F04BFB049A9C
:100DB0000599C34B18682043186008681043086001
:100DC00006B0B0BD00040048080400480800004810
:100DD0002800004818000048F0B591B00193134670
:100DE0000D4601460198169E189C179A10960F9072
:100DF0000EA801800DA90D800CAD2B700BAB1A80D5
:100E00000AAA14800024029409945B7808AC237029
:100E10000B9B07AC2370527806AB1A700A9A05AB8D
:100E20001A70008809880FAB1A788218521E5B78F6
:100E3000CB185B1E92B29BB200F0FAF802989F4A60
:100E4000116801231B03194311600490FFE7049804
:100E50000FA9497888426DD2FFE70CA80078C02816
:100E60000DDBFFE710980FA94A780CA909786039C3
:100E70005143049A89184900405A09902EE00CA861
:100E80000078A8280BD1FFE710980FA94A78A02175
:100E90005143049A89184900405A09901DE00CA852
:100EA0000078B8280BD1FFE710980FA94A78A12144
:100EB0005143049A89184900405A09900CE010984F
:100EC0000FA94A780CA9097820395143049A891846
:100ED0004900405A0990FFE7FFE7FFE70020039031
:100EE000FFE703980FA9097888421ED2FFE7099807
:100EF000039988400004002809D5FFE708A8007876
:100F000000F02FF807A8007800F02BF808E006A8FA
:100F1000007800F026F805A8007800F022F8FFE736
:100F2000FFE70398401C0390DBE7FFE70498401CB1
:100F300004908CE76249086801221203104308609C
:100F400011B0F0BD280400481804004880B582B0F4
:100F5000014601A8017001780020FFF767FE02B08A
:100F600080BD80B582B0014601A8017001780120E2
:100F7000FFF75CFE02B080BDF0B591B00C460546AF
:100F8000179F169E199805901899059810970F9617
:100F90000EAE35800DAD2C800C920BAA13700AAAF0
:100FA000118009A908800E9808A908800D9807A942
:100FB000088006A900200870FFE706A800780BA9A2
:100FC0000978884231DAFFE708A80490008807A969
:100FD00009880C9A06AB1B78D25C0AAB1D8809AB5A
:100FE0001E880F9B109C029601950094FFF7F4FE5B
:100FF00004980FA90B78089AD218028000880A7802
:101000008021891A88420ADDFFE70E9808A9088026
:101010000FA841780798401807A90880FFE7FFE765
:101020000698401C06A90870C7E711B0F0BD000083
:1010300010B58AB009AC0194208008A80390018003
:1010400007A80290028006A8049003801B49086844
:10105000012212030592104308602A20FFF776FF51
:1010600001984078FFF77DFF01980078FFF779FF3E
:1010700002984078FFF775FF02980078FFF771FF3C
:101080002B20FFF763FF03984078FFF76AFF039870
:101090000078FFF766FF04984078FFF762FF049836
:1010A0000078FFF75EFF2C20FFF750FF059A0449F8
:1010B0000868104308600AB010BDC0462804004804
:1010C00018040048554908680122904308603248D6
:1010D0000068C00400280ED5FFE7304800780028DB
:1010E00004D1FFE72D4901200870FFE72C497D203E
:1010F0000001088019E029480078012814D1FFE791
:101100002748008800280ED1FFE7B349086801226C
:101110009302184308600868D203104308601F490F
:1011200002200870FFE7FFE7FFE71D48008800285E
:1011300005D0FFE71A490888401E0880FFE71949D3
:101140000868401E0860002807D1FFE7A249086828
:101150000122D20310430860FFE75F4800680028BF
:1011600005D0FFE75C490868401E0860FFE7B44807
:101170000068002805D0FFE7B1490868401E0860F4
:10118000FFE709480088002805D0FFE706490888DE
:10119000401E0880FFE7704710000048A0000020B4
:1011A0003A0000203C0000207201002080B582B08F
:1011B00014490868022210430860102000F032F839
:1011C0001149002001900860104800687D21C90085
:1011D000FFF7B2F801460198491E0D4A11600D490A
:1011E00008600D4B18680122104318600B4B1868FB
:1011F000904318600A48026008681043086002B013
:1012000080BDC0461C100240280400401000002091
:101210002C0400400004004014040040100400406E
:101220000C04004081B00146684601700021405620
:10123000002809D4FFE7684601781F2001400120FB
:10124000884002490860FFE701B0704700E100E014
:1012500080B582B02049C8200860462000F004FD17
:10126000FFE7002000F000FD000600280AD5FFE798
:1012700019480068002804D1FFE701A90020087080
:1012800004E0EEE701A901200870FFE701A800785B
:1012900002B080BD80B582B00F49C82008604020F0
:1012A00000F0E2FCFFE7002000F0DEFC0006002872
:1012B0000AD4FFE708480068002804D1FFE701A925
:1012C0000020087004E0EEE701A901200870FFE7A4
:1012D00001A8007802B080BD7401002080B588B0FC
:1012E0003A4806900920C1060868C322920090433C
:1012F0000860086841239B00184308603449086867
:1013000010430860334901910868122210430860B5
:10131000314908680222009210430860642000F0FE
:1013200091F8009A0199086810430860FFF790FF50
:1013300002A90870FFF7AEFF014603A8017000780C
:10134000002805D0FFE702A80078002806D1FFE7B3
:1013500022490020086007A9087032E020490120D6
:101360000870FFE706980078002811D0FFE706987C
:10137000411C0691017805A8017006994A1C069245
:101380000A7804A90A700078097800F08BFCE9E774
:101390000021084600F086FC472000F065FC48204C
:1013A00000F062FC3120942100F07CFC3020F72119
:1013B00000F078FC422000F057FC07A901200870DB
:1013C000FFE707A8007808B080BDC04614000020E1
:1013D000080000481800004828000048003001407C
:1013E000A100002080B582B0014668460170009AD5
:1013F00005215143017000990B31017001782E20B5
:1014000000F050FC0E4964200860FFE7332000F034
:101410005DFA400700280AD4FFE709480068002861
:1014200004D1FFE701A90020087004E0EEE701A95C
:1014300001200870FFE701A8007802B080BDC04617
:101440002401002081B00090009907484843009093
:10145000FFE70098002804D0FFE70098401E0090A6
:10146000F7E701B07047C046B80B000080B500F048
:1014700063FB00F09FFB80BD80B582B0E048008830
:101480000190019800040190DB480188019808430D
:101490000190AC4801A90422FFF798F9FFF70EFA72
:1014A00002B080BD80B582B0064800680190019806
:1014B000D04940180190019803494022FFF7F0F805
:1014C00002B080BD680100202801002070B592B0F4
:1014D00000200A90119010900F900E900D900C909B
:1014E00098480B90FFF714F80B98811C0B9100881B
:1014F000C14908800B980088C1490880FFF7E8F9C6
:10150000F14908680122D20310430860FFF74EFE3C
:10151000FFF70CFBFFF74EFBFFF7DCFB0A98FFF72A
:10152000A3FB89498948086089497D20C00008607B
:1015300000F024F9002811D0FFE7FFE78448006895
:1015400000280AD0FFE78C4800680005002803D572
:10155000FFE7FFF727FAFFE7F0E7FFE7EB49086847
:101560000122D203104308607A48FFF77DFBFFF7A2
:10157000B5FE79480078002809D0FFE70220FFF780
:1015800031FF00F033FA0120FFF72CFFFFE772482C
:101590000078002843D0FFE772490CA80990FEF7B5
:1015A00021FE0998FEF744FE099A6D4E08963168AF
:1015B0007368684D03951F24E4020294019300911F
:1015C000C3B20A2007903221FFF7D6FC099866497A
:1015D000FEF708FE0998FEF72BFE099A01460798C8
:1015E000336876680395029401960093CBB250213C
:1015F000FFF7C2FC09985D49FEF7F4FD0998FEF774
:1016000017FE089B099A19685B6803950294019379
:101610000091C3B21E206E21FFF7AEFC18E04F49C7
:101620000CA80690FEF7DEFD0698FEF701FE069A6E
:101630004B4B19685B68474C03941F24E4020294E7
:1016400001930091C3B20A205021FFF795FCFFE7F8
:10165000FFE747480088002809D1FFE70220FFF78D
:10166000C1FE00F0C3F90120FFF7BCFEFFE7DE4832
:101670000078002865D0FFE73E480068C0070028D2
:101680005ED0FFE700F0BEF8002858D0FFE7F24830
:10169000C078059006284BD80598810001A04058D5
:1016A0008746C046C1160008C1160008D3160008B8
:1016B000E5160008F7160008091700081B170008B0
:1016C000E5480078052803D1FFE700F079F9FFE746
:1016D00031E0F1480078052803D1FFE700F0BEF9BA
:1016E000FFE728E0EC480078072803D1FFE700F087
:1016F00099FBFFE71FE0E8480078072803D1FFE7E0
:1017000000F07AFBFFE716E0E3480078472803D1B2
:10171000FFE700F0EFFAFFE70DE0DF48007805286B
:1017200005D1FFE700F0F4F800F082F9FFE7FFE7EA
:1017300000F07EF9FFE7044904480860FFE7FFE78F
:10174000FFE786E7000803083C00002020BF0200F6
:1017500074010020E0FF0000A10000201E350008F9
:10176000080000202D35000838350008183500081D
:1017700072010020100400481000004884B00020CE
:1017800002908A4801908B4800881C49884204DBFB
:10179000FFE703A90020087028E000200090FFE781
:1017A0000098844909888901884216DAFFE7019880
:1017B000411C0191017802984018029002A84088CB
:1017C000002805D0FFE702987C4940180290FFE707
:1017D000FFE70098401C0090E2E7029876490988EC
:1017E000401A4142484103A90870FFE703A8007866
:1017F00004B0704700500008700100200180000014
:101800006E01002010B586B0E7480490E7490868EB
:10181000102420430860302000F040F903A9019112
:101820000870002000F03AF9019A014602A8017000
:10183000DF4B196821431960029911700078002864
:1018400005D0FFE702A80078802807DBFFE74720E4
:1018500000F00AFA05A90020087030E00298049907
:101860004A1C04920870D14908681022104308608D
:10187000302000F013F9FFE702AA1078411E117022
:10188000002808D0FFE7002000F008F904994A1C5E
:1018900004920870F0E7C6490868102210430860F7
:1018A0000498401E00780006002804D4FFE705A92C
:1018B0000020087003E0039805A90870FFE705A859
:1018C000007806B010BDC0462800004880B584B03E
:1018D00003A900910870F14A11681020019001439A
:1018E000116000F0DBF80098007800F0D7F80020D5
:1018F00000F0D4F8019B014602A80170E84A116883
:1019000019431160007804B080BDC046180000483B
:1019100080B584B0254803900020029024480078C8
:10192000002808D0FFE7FFF7BDFDFEF7C7FF2049FD
:1019300000200870FFE700200190FFE701981D4993
:1019400009888901884216DAFFE70398411C039150
:10195000017802984018029002A84088002805D01B
:10196000FFE70298154940180290FFE7FFE701984A
:10197000401C0190E2E702980F490988884201D093
:10198000FFE710E0FFF778FD00F01AF8B549642092
:101990000860FFE7B3480068002801D0FFE7F9E7D7
:1019A000FFF700F8FFE704B080BDC0460050000814
:1019B0006C010020700100206E0100200100FFFF7B
:1019C00080B5A7480078002801D1FFE70BE07649F1
:1019D0000520087035204870032088700020C870EA
:1019E000FFF744FDFFE780BDA100002080B5FC4962
:1019F0000620087028204870412088700A484278E4
:101A0000CA700078087100F097F800F0D3F83C2015
:101A1000FFF75CFF0F21084062300449088047202F
:101A200000F022F980BDC04638000020720100207D
:101A300080B58B480078002801D1FFE70BE0F7491B
:101A4000052008703520487003208870FF20C8707A
:101A5000FFF70CFDFFE780BDA200002080B582B03B
:101A600001A900200870FFE701A8007804280CDC19
:101A7000FFE701A802780748805CF3498854FFE734
:101A80000198401C01A90870EEE7FFF7EFFC02B0D7
:101A900080BDC04600000020A2000020B0B583B089
:101AA00002A90870029869460870FFE718480068A4
:101AB0000006002801D5FFE7F8E7164C0023236055
:101AC000154916480860164A6946116015490122F1
:101AD0000A60216810252943216021681143216093
:101AE00011490B60114B1860114B01A81860114887
:101AF0000260086810430860FFE7054800680006B8
:101B0000002801D5FFE7F8E701A8007803B0B0BDD1
:101B10000830014030000240380002400C300140E3
:101B20003C000240340002401C00024024000240FD
:101B3000280002402000024080B584B0C2480390D3
:101B400003980078401E02A90870472000F08CF826
:101B5000102001900021009100F0A4F800991120BC
:101B600000F0A0F8482000F07FF8019A5F4908686B
:101B7000104308603A20FFF791FFFFE702AA1078B0
:101B8000411E1170002807D0FFE70398411C039104
:101B90000078FFF783FFF1E75549086810221043EA
:101BA000086004B080BDC046A200002028000048A4
:101BB0001800004880B584B002A96420087001A90B
:101BC0000020087026480078002804D1FFE703A908
:101BD000002008703FE0FFE702AA1078411E117054
:101BE000002834D0FFE7442000F03EF81D490220D1
:101BF0000860FFE71B48006800280CD0FFE70020C2
:101C000000F032F88007002804D5FFE701A9012081
:101C1000087000E0EEE701A80078002801D1FFE796
:101C2000DAE7104964200860FFE7002000F01CF8A4
:101C3000800700280AD5FFE70A480068002804D179
:101C4000FFE703A90020087005E0EEE7FFE7019831
:101C500003A90870FFE703A8007804B080BDC04660
:101C6000A10000207401002080B584B0014603A8C3
:101C700001701E4A11681023019319431160007806
:101C8000FFF70CFF019B014602A80170184A11687A
:101C900019431160007804B080BDC0462800004898
:101CA0001800004880B586B005AA0092107004A8FC
:101CB000019001700D4908681022029210430860DB
:101CC0002020FFF7EBFE00980078FFF7E7FE019871
:101CD0000078FFF7E3FE029B014603A80170044A67
:101CE000116819431160007806B080BD28000048D3
:101CF0001800004880B584B003A90020088052482D
:101D000001790291029909020291417902980843EE
:101D100002900298800102900298000B042803D8D8
:101D2000FFE7FFF785FE58E002982E4909688842D0
:101D300004D2FFE702982B490860FFE702982A497E
:101D40000968884217D0FFE729480078002803D0A7
:101D5000FFE7FFF7A7FBFFE725490120087002987E
:101D600024494018204908603748811D1F484022F7
:101D7000FEF780FA06E03448811D1C484022FEF739
:101D800079FAFFE700200190FFE701983F2816DC71
:101D9000FFE701982C49401881790398411803A85E
:101DA00001800088FF2805DDFFE70398FF3803A9BD
:101DB0000880FFE7FFE70198401C0190E5E7224912
:101DC00007200870032088700879C8704879087166
:101DD00003984871FFF74AFBFFE704B080BDC04697
:101DE000A20000203400002068010020280100200B
:101DF0006C0100200050000880B513490879084A9A
:101E000010801088000210804B79108818431080D1
:101E100003208870FFF72AFB80BDC046A200002087
:101E20006E01002080B508490879084A10801088A2
:101E3000000210804B7910881843108003208870AE
:101E4000FFF714FB80BDC046A200002070010020F7
:101E50000000000000000000000000000000000082
:101E60000000000000000000000000000000000072
:101E7000000000000000000C000C000C000C000C26
:101E8000000C000C000C000C000C000C0000000CFE
:101E9000000C0000000000000000001B001B001BE5
:101EA000001B001B000000000000000000000000FC
:101EB0000000000000000000000000000000801989
:101EC000801980198019C07FC07F80190033C07FBE
:101ED000C07F0033003300330033000000000000F7
:101EE0000000001E003F807580650074003C001EED
:101EF00000078005806580658075003F001E000436
:101F0000000400000000007000D840D8C0D880D97C
:101F100000730006000C801BC036C066C046C006B9
:101F200080030000000000000000001E003F00339E
:101F300000330033001E000CC03CC066806380612B
:101F40008063C03E801C0000000000000000000C08
:101F5000000C000C000C000C000000000000000051
:101F60000000000000000000000000000000000071
:101F7000800000010003000600060004000C000CB5
:101F8000000C000C000C000C00040006000600030E
:101F900000018000002000100018000C000C00045C
:101FA0000006000600060006000600060004000CFD
:101FB000000C0018001000200000000C002D003F55
:101FC000001E0033000000000000000000000000C0
:101FD0000000000000000000000000000000000001
:101FE0000000000C000C000C000CC0FFC0FF000C37
:101FF000000C000C000C00000000000000000000BD
:1020000000000000000000000000000000000000D0
:1020100000000000000000000000000C000C0004A4
:1020200000040008000000000000000000000000A4
:10203000000000000000001E001E00000000000064
:102040000000000000000000000000000000000090
:102050000000000000000000000000000000000080
:102060000000000C000C0000000000000000000355
:10207000000300030006000600060006000C000C2A
:10208000000C000C001800180018000000000000F0
:102090000000001E003F0033806180618061806D20
:1020A000806D8061806180610033003F001E000010
:1020B0000000000000000006000E001E0036002692
:1020C00000060006000600060006000600060006E0
:1020D00000060000000000000000001E003F8073AA
:1020E00080618061800100030006000C0018003050
:1020F0000060807F807F0000000000000000001C66
:10210000003E006300630003000E000E0003800128
:10211000800180618073003F001E0000000000000D
:1021200000000006000E000E001E001E0016003605
:1021300000360066807F807F0006000600060000F3
:10214000000000000000007F007F00600060006071
:10215000006E007F80638001800180618073003F9A
:10216000001E0000000000000000001E003F803341
:1021700080610060006E007F80738061806180619B
:102180008033003F001E0000000000000000807F40
:10219000807F80010003000300060006000C000C95
:1021A000000C0008001800180018000000000000D3
:1021B0000000001E003F8063806180610021001EDE
:1021C000003F8061806180618061003F001E0000EF
:1021D000000000000000001E003F0073806180616D
:1021E00080618073803F801D800180610073003FAB
:1021F000001E0000000000000000000000000000C1
:102200000000000C000C00000000000000000000B6
:102210000000000C000C00000000000000000000A6
:102220000000000000000000000C000C0000000096
:10223000000000000000000C000C00040004000876
:10224000000000000000000080008003000E003845
:1022500000600038000E80038000000000000000D5
:102260000000000000000000000000000000807F6F
:10227000807F00000000807F807F00000000000061
:10228000000000000000000000000000000000004E
:1022900000400070001C000780010007001C007057
:1022A0000040000000000000000000000000001FCF
:1022B000803FC071C060C000C00180030007000EF5
:1022C000000C000C0000000C000C000000000000DE
:1022D0000000001E003F803180718063806F806D40
:1022E000806D806F806700600032003E001C00003F
:1022F000000000000000000E000E001B001B001B71
:10230000001B80318031803F803F8031C060C060E1
:10231000C0600000000000000000007C007E006340
:10232000006300630063007E007E00638061806163
:102330008063007F007E0000000000000000001E9F
:10234000003F8031806100600060006000600060DC
:10235000006080618031003F001E0000000000002E
:102360000000007C007F0063806380618061806189
:1023700080618061806100630063007E007C0000FA
:10238000000000000000807F807F0060006000602F
:102390000060007F007F0060006000600060807F60
:1023A000807F0000000000000000807F807F0060D0
:1023B000006000600060007F007F006000600060DF
:1023C0000060006000600000000000000000001ECF
:1023D000003F803180610060006000608063806346
:1023E000806180618031803F001E0000000000009D
:1023F0000000806180618061806180618061807F98
:10240000807F806180618061806180618061000087
:10241000000000000000003F003F000C000C000C1A
:10242000000C000C000C000C000C000C000C003F19
:10243000003F0000000000000000800180018001DA
:1024400080018001800180018001800180618061C4
:102450008073003F001E0000000000000000C0600C
:102460008061006300660066006C0078007C006696
:102470000066006380618061C060000000000000B1
:1024800000000060006000600060006000600060AC
:1024900000600060006000600060807F807F00005E
:1024A000000000000000C071C071C07BC07AC06A2B
:1024B000C06AC06EC064C060C060C060C060C06000
:1024C000C060000000000000000080718071807911
:1024D00080798079806D806D806D80658067806790
:1024E0008067806380630000000000000000001E21
:1024F000003F003380618061806180618061806124
:10250000806180610033003F001E00000000000079
:102510000000007E007F8063806180618061806355
:10252000007F007E006000600060006000600000CE
:10253000000000000000001E003F00338061806149
:102540008061806180618061806580670033803F49
:10255000401E0000000000000000007E007F80633D
:10256000806180618063007F007E0066006300639D
:1025700080618061C0600000000000000000000E6B
:10258000001F8031803100300038001E00078003BA
:10259000806180618031003F001E0000000000006B
:1025A0000000C0FFC0FF000C000C000C000C000C71
:1025B000000C000C000C000C000C000C000C0000C7
:1025C00000000000000080618061806180618061A6
:1025D0008061806180618061806180618073003F83
:1025E000001E0000000000000000C060C060C0606D
:1025F000803180318031001B001B001B001B000E4E
:10260000000E000E00040000000000000000C0C02A
:10261000C0C0C0C0C0C0C0C0C0CC804C804C805EB8
:102620008052805280738061806100000000000051
:102630000000C0C0806080610033003B001E000CC1
:10264000000C001E001F003B80718061C0C00000B4
:10265000000000000000C0C08061806100330033D2
:10266000001E001E000C000C000C000C000C000CE6
:10267000000C0000000000000000803F803F80014F
:10268000000300030006000C000C001800180030C6
:102690000060807F807F000000000000000F000FBE
:1026A000000C000C000C000C000C000C000C000CCA
:1026B000000C000C000C000C000C000C000F000FB4
:1026C0000000001800180018000C000C000C000C92
:1026D00000060006000600060003000300030000D9
:1026E00000000000001E001E000600060006000696
:1026F00000060006000600060006000600060006AA
:1027000000060006001E001E0000000C000C001E4B
:10271000001200330033806180610000000000007F
:1027200000000000000000000000000000000000A9
:102730000000000000000000000000000000000099
:10274000000000000000000000000000E0FF0000AA
:10275000000000380018000C00000000000000001D
:102760000000000000000000000000000000000069
:102770000000000000000000000000000000001F3A
:10278000803F80618001801F803F80618063807F07
:10279000C038000000000000000000600060006021
:1027A0000060006E007F8073806180618061806165
:1027B0008073007F006E0000000000000000000039
:1027C000000000000000001E003F80738061006078
:1027D000006080618073003F001E00000000000068
:1027E00000008001800180018001801D803F807396
:1027F00080618061806180618073803F801D000006
:102800000000000000000000000000000000001EAA
:10281000003F00738061807F807F00608071003F97
:10282000001E0000000000000000C007C00F000CE8
:10283000000C807F807F000C000C000C000C000C52
:10284000000C000C000C0000000000000000000064
:1028500000000000801D803F807380618061806186
:1028600080618073803F801D80018063007F003E17
:1028700000000060006000600060006F807F807179
:102880008061806180618061806180618061000021
:102890000000000000000006000600000000003EEE
:1028A000003E0006000600060006000600060006C0
:1028B0000006000000000000000600060000000006
:1028C000003E003E00060006000600060006000668
:1028D0000006000600060046007E003C0000006086
:1028E000006000600060806100630066006C007C36
:1028F0000076006300638061C0600000000000009B
:102900000000003E003E000600060006000600062D
:10291000000600060006000600060006000600008D
:10292000000000000000000000000000000080DD4A
:10293000C0FFC0CEC0CCC0CCC0CCC0CCC0CCC0CC02
:10294000C0CC0000000000000000000000000000FB
:102950000000006F807F8071806180618061806194
:1029600080618061806100000000000000000000C4
:10297000000000000000001E003F80738061806145
:10298000806180618073003F001E00000000000035
:102990000000000000000000006E007F8073806176
:1029A0008061806180618073007F006E00600060E4
:1029B000006000600000000000000000801D803FFB
:1029C000807380618061806180618073803F801D41
:1029D00080018001800180010000000000000000F3
:1029E00000000067803F00390030003000300030C8
:1029F0000030003000300000000000000000000047
:102A0000000000000000001E803F80610060007F29
:102A1000803F80018061007F001E000000000000F8
:102A200000000000000800180018007F007F001858
:102A300000180018001800180018801F800F0000F0
:102A400000000000000000000000000000008061A5
:102A50008061806180618061806180618063807F4E
:102A6000803D0000000000000000000000000000A9
:102A70000000C060803180318031001B001B001BD2
:102A8000000E000E00060000000000000000000024
:102A900000000000000080DD80DD80DD0055005575
:102AA000005500770077002200220000000000009F
:102AB00000000000000000000000806100330033CF
:102AC000001E000C000C001E00330033806100006B
:102AD0000000000000000000000000008061806134
:102AE000803100330033001B001B001B000E000E62
:102AF000000E001C007C00700000000000000000C0
:102B00000000C07FC07F800100030006000C001899
:102B10000030C07FC07F00000000000080038007FD
:102B200000060006000600060006000E001C001C41
:102B3000000E00060006000600060006800780035F
:102B40000006000600060006000600060006000655
:102B50000006000600060006000600060006000645
:102B6000000600060038003C000C000C000C000CB5
:102B7000000C000E00070007000E000C000C000CFB
:102B8000000C000C003C00380000000000000000B9
:102B90000000000000008038807F00470000000037
:102BA0000000000000000000000000000000000025
:102BB0000000000000000000000000000000000015
:102BC0000000000000000000000000000000000005
:102BD00000000008001C001C0036003600360063B0
:102BE0000063007F80FF80C180C180C180C1000080
:102BF00000000000000000FF00FF00C000C000C097
:102C000000FE00FF80C380C180C180C180C300FF7F
:102C100000FE000000000000000000FE00FF00C3F6
:102C200000C300C300FE00FF80C180C180C180C11D
:102C300080C180FF00FF000000000000000080FF56
:102C400080FF00C000C000C000C000C000C000C0C5
:102C500000C000C000C000C000C0000000000000B4
:102C60000000000F001F001B001B001B003B003377
:102C7000003300330063006380FF80FF80C10000E9
:102C800000000000000080FF80FF00C000C000C006
:102C900000FF00FF00C000C000C000C000C080FFF7
:102CA00080FF0000000000000000408CC0CCC0CCC1
:102CB000804C806D807F003F000C001E003F806DC7
:102CC000806DC0CC408C0000000000000000007E41
:102CD00000FF80C3808180018003000F000F80030C
:102CE0008001808180C300FF007E000000000000A2
:102CF000000080C180C180C380C780C780CD80CDE7
:102D000080D980D980F180E180E180C180C100005C
:102D100000000000001C80C180C180C380C780C744
:102D200080CD80CD80D980D980F180E180E180C1E3
:102D300080C1000000000000000080C180C300C707
:102D400000CE00DC00F800F000F000F800DC00CE5F
:102D500000C780C380C10000000000000000801F89
:102D6000803F80718061806180618061806180616D
:102D700080618061806180E180C10000000000000E
:102D8000000080C180C180E380E380F780F780DDB0
:102D900080DD80C980C980C180C180C180C1000040
:102DA00000000000000080C180C180C180C180C1DE
:102DB00080FF80FF80C180C180C180C180C180C18F
:102DC00080C10000000000000000003E007F80E3A2
:102DD00080C180C180C180C180C180C180C180C1EB
:102DE00080E3007F003E000000000000000080FF44
:102DF00080FF80C180C180C180C180C180C180C18D
:102E000080C180C180C180C180C10000000000007D
:102E1000000000FE00FF80C380C180C180C300FFAE
:102E200000FE00C000C000C000C000C000C0000024
:102E3000000000000000003E007F80E380C100C071
:102E400000C000C000C000C000C080C180E3007F9F
:102E5000003E000000000000000000FF00FF00181E
:102E600000180018001800180018001800180018A2
:102E7000001800180018000000000000000080C1C9
:102E800080C180C180E3806300730037003E001E74
:102E9000000C000C001C0078007000000000000016
:102EA0000000000C000C003F807F806DC0CCC0CCC7
:102EB000C0CCC0CC806D807F003F000C000C0000B7
:102EC00000000000000080C180C100630063003684
:102ED0000036001C001C003600360063006380C111
:102EE00080C1000000000000000080C180C180C1DE
:102EF00080C180C180C180C180C180C180C180C1CA
:102F000080C1C0FFC07FC00000000000000080C181
:102F100080C180C180C180C180C180C180E1807FCB
:102F2000803F8001800180018001000000000000DE
:102F30000000C0C0C0CCC0CCC0CCC0CCC0CCC0CCC9
:102F4000C0CCC0CCC0CCC0CCC0CCC0FFC0FF000047
:102F5000000000000000C0C0C0CCC0CCC0CCC0CCC1
:102F6000C0CCC0CCC0CCC0CCC0CCC0CCC0CCC0FFCE
:102F7000C0FFC00000000000000000F000F00030C2
:102F800000300030003E003F80338031803180319E
:102F90008033003F003E0000000000000000C0C081
:102FA000C0C0C0C0C0C0C0C0C0F8C0FCC0CEC0C699
:102FB000C0C6C0C6C0CEC0FCC0F800000000000003
:102FC000000000C000C000C000C000C000FC00FE47
:102FD00000C700C300C300C300C700FE00FC000020
:102FE000000000000000003E007F80E380C18001FF
:102FF000801F801F8001800180C180C180E3007F2D
:10300000003E000000000000000000C780CFC0DDCF
:10301000C0D8C0D8C0F8C0F8C0D8C0D8C0D8C0D8B0
:10302000C0DD80CF00C70000000000000000803F2E
:10303000807F80E180C180C180E1807F803F80719E
:10304000806180E180C180C180C10000000000007B
:1030500000000000000000000000003E00FF00C370
:103060000003003F00FB00C300C780FF8079000021
:103070000000000000008000801F003E0060005C37
:1030800000BF00E380C180C180C180C10063007FB8
:10309000001C000000000000000000000000000014
:1030A000000000FF80FF80C100FF00FE00C380C160
:1030B00080C180FF00FF0000000000000000000051
:1030C00000000000000000FF00FF00C000C000C0C2
:1030D00000C000C000C000C000C000000000000030
:1030E00000000000000000000000003F003F00332F
:1030F0000033003300630063004380FF80FF80C122
:103100000000000000000000000000000000003E81
:10311000007F80E380C180FF80FF00C080E1007FEE
:10312000003E000000000000000000000000000061
:103130000000408CC0CC806D002D001E003F002D93
:10314000806DC0CC408C000000000000000000003A
:10315000000000000000007F80FF80C1009F001F72
:103160008001808180C300FF007E0000000000001D
:103170000000000000000000000080C180C380C388
:1031800080C780CD80D980F180E180E180C10000DE
:1031900000000000000000000022001C000080C1B0
:1031A00080C380C380C780CD80D980F180E180E179
:1031B00080C10000000000000000000000000000CE
:1031C000000000C300C600CC00D800F000F800CC1E
:1031D00000C400C600C300000000000000000000A2
:1031E000000000000000801F803F807180618061CE
:1031F00080618061806180E180C10000000000008A
:103200000000000000000000000080C180C180E3D9
:1032100080F780FF80DD80C980C180C180C100004F
:10322000000000000000000000000000000080C15D
:1032300080C180C180FF80FF80C180C180C180C10A
:1032400080C100000000000000000000000000003D
:103250000000003E007F80E380C180C180C180C14A
:1032600080E3007F003E000000000000000000003E
:1032700000000000000000FF80FF80C180C180C10D
:1032800080C180C180C180C180C1000000000000F9
:103290000000000000000000000000DE00FF80E3EE
:1032A00080C180C180E300FF00DE00C000C00000DC
:1032B0000000000000000000000000000000003ED0
:1032C000007F80E380C100C000C080C180E3007F38
:1032D000003E0000000000000000000000000000B0
:1032E000000000FF00FF0018001800180018001868
:1032F0000018001800180000000000000000000086
:1033000000000000000080C180C10063003300366F
:10331000001C001C0038003000700060000000003D
:1033200000000000000000000000000C000C807F86
:10333000C0FFC0CCC0CCC0FF807F000C000C0000E0
:10334000000000000000000000000000000080807D
:1033500080C100630036001C001C0036006380C181
:10336000808000000000000000000000000000005D
:10337000000000C300C300C300C300C300C300C3F8
:1033800000C300FF807F80010000000000000000FB
:1033900000000000000080C180C180C180C180E1C8
:1033A000807F803F800180018001000000000000DC
:1033B00000000000000000000000C0CCC0CCC0CC69
:1033C000C0CCC0CCC0CCC0CCC0CCC0FFC0FF0000C3
:1033D0000000000000000000000000000000C0CC61
:1033E000C0CCC0CCC0CCC0CCC0CCC0CCC0CCC0FF4A
:1033F000C0FFC0000000000000000000000000004E
:10340000000000F000F00030003E003F80338031CB
:103410008033003F003E000000000000000000007C
:10342000000000000000C0C0C0C0C0C0C0F8C0FCA8
:10343000C0CEC0C6C0CEC0FCC0F800000000000076
:103440000000000000000000000000C000C000C03C
:1034500000FE00FF80C380C180C300FF00FE0000AB
:103460000000000000000000000000000000003E1E
:10347000007F80E180CF800F800180C180E3007FEA
:10348000003E0000000000000000000000000000FE
:10349000000000C780CFC0DDC0D8C0F8C0F8C0D8D9
:1034A000C0DD80CF00C70000000000000000000069
:1034B000000000000000807F80FF80C180C1807F0D
:1034C000803F8061806180C180C1000000000000F9
:1034D000002280FF80FF00C000C000C000FF00FF8E
:1034E00000C000C000C000C000C080FF80FF00001E
:1034F0000000000000000000000000140000003E7A
:10350000007F80E380C180FF80FF00C080E1007FFA
:10351000003E0000000000005620322E3000CDC5D5
:10352000D220D0C0C4C8CEC1CBCECAC000D1D3C176
:10353000D020CFCEC8D1CA00C1D3D2CBCEC0C4C553
:10354000D0000000683500080000002040000000A6
:1035500010010008A83500084000002038070000CE
:1035600030010008000000000719040001000000FD
:103570000B120000501E0008006CDC02319436F87B
:10358000468547144A3F4C5A4F2B531154EB440085
:103590005610570E5803341000000000FFFFFFFFC5
:0835A000E703D00720BF020081
:04000005080000B53A
:00000001FF
